{
  "contractName": "SuperJuicyToken",
  "abi": [
    {
      "stateMutability": "payable",
      "type": "fallback",
      "payable": true
    },
    {
      "inputs": [
        {
          "internalType": "address",
          "name": "initialAddress",
          "type": "address"
        }
      ],
      "name": "initializeProxy",
      "outputs": [],
      "stateMutability": "nonpayable",
      "type": "function"
    },
    {
      "stateMutability": "payable",
      "type": "receive",
      "payable": true
    },
    {
      "inputs": [
        {
          "internalType": "string",
          "name": "name",
          "type": "string"
        },
        {
          "internalType": "string",
          "name": "symbol",
          "type": "string"
        },
        {
          "internalType": "string",
          "name": "message",
          "type": "string"
        },
        {
          "internalType": "uint256",
          "name": "initialSupply",
          "type": "uint256"
        }
      ],
      "name": "initialize",
      "outputs": [],
      "stateMutability": "nonpayable",
      "type": "function"
    },
    {
      "inputs": [],
      "name": "readMessage",
      "outputs": [
        {
          "internalType": "string",
          "name": "",
          "type": "string"
        }
      ],
      "stateMutability": "view",
      "type": "function",
      "constant": true
    },
    {
      "inputs": [],
      "name": "readSupply",
      "outputs": [
        {
          "internalType": "uint256",
          "name": "",
          "type": "uint256"
        }
      ],
      "stateMutability": "view",
      "type": "function",
      "constant": true
    },
    {
      "inputs": [],
      "name": "readName",
      "outputs": [
        {
          "internalType": "string",
          "name": "",
          "type": "string"
        }
      ],
      "stateMutability": "view",
      "type": "function",
      "constant": true
    }
  ],
  "bytecode": "0x608060405234801561001057600080fd5b50610e94806100206000396000f3fe60806040526004361061004e5760003560e01c8063031d5d01146100675780631c5d2b491461009257806339793ea9146100bb5780634a0687ef146100e65780636df137f61461010f5761005d565b3661005d5761005b61013a565b005b61006561013a565b005b34801561007357600080fd5b5061007c610154565b6040516100899190610b35565b60405180910390f35b34801561009e57600080fd5b506100b960048036038101906100b49190610837565b6101e6565b005b3480156100c757600080fd5b506100d06104ee565b6040516100dd9190610b35565b60405180910390f35b3480156100f257600080fd5b5061010d6004803603810190610108919061080a565b610580565b005b34801561011b57600080fd5b5061012461068c565b6040516101319190610bd7565b60405180910390f35b610142610696565b61015261014d610698565b6106c1565b565b60606020805461016390610cd2565b80601f016020809104026020016040519081016040528092919081815260200182805461018f90610cd2565b80156101dc5780601f106101b1576101008083540402835291602001916101dc565b820191906000526020600020905b8154815290600101906020018083116101bf57829003601f168201915b5050505050905090565b60003073ffffffffffffffffffffffffffffffffffffffff16600060128a8a8a8a60405160240161021c96959493929190610aa0565b6040516020818303038152906040527f42fe0980000000000000000000000000000000000000000000000000000000007bffffffffffffffffffffffffffffffffffffffffffffffffffffffff19166020820180517bffffffffffffffffffffffffffffffffffffffffffffffffffffffff83818316178352505050506040516102a69190610a89565b6000604051808303816000865af19150503d80600081146102e3576040519150601f19603f3d011682016040523d82523d6000602084013e6102e8565b606091505b5050809150508061032e576040517f08c379a000000000000000000000000000000000000000000000000000000000815260040161032590610b97565b60405180910390fd5b3073ffffffffffffffffffffffffffffffffffffffff163383600067ffffffffffffffff81111561036257610361610d33565b5b6040519080825280601f01601f1916602001820160405280156103945781602001600182028036833780820191505090505b506040516024016103a793929190610af7565b6040516020818303038152906040527fc68d4283000000000000000000000000000000000000000000000000000000007bffffffffffffffffffffffffffffffffffffffffffffffffffffffff19166020820180517bffffffffffffffffffffffffffffffffffffffffffffffffffffffff83818316178352505050506040516104319190610a89565b6000604051808303816000865af19150503d806000811461046e576040519150601f19603f3d011682016040523d82523d6000602084013e610473565b606091505b505080915050806104b9576040517f08c379a00000000000000000000000000000000000000000000000000000000081526004016104b090610b77565b60405180910390fd5b8383602091906104ca9291906106e7565b50816022819055508787602191906104e39291906106e7565b505050505050505050565b6060602180546104fd90610cd2565b80601f016020809104026020016040519081016040528092919081815260200182805461052990610cd2565b80156105765780601f1061054b57610100808354040283529160200191610576565b820191906000526020600020905b81548152906001019060200180831161055957829003601f168201915b5050505050905090565b600073ffffffffffffffffffffffffffffffffffffffff168173ffffffffffffffffffffffffffffffffffffffff1614156105f0576040517f08c379a00000000000000000000000000000000000000000000000000000000081526004016105e790610bb7565b60405180910390fd5b600073ffffffffffffffffffffffffffffffffffffffff16610610610698565b73ffffffffffffffffffffffffffffffffffffffff1614610666576040517f08c379a000000000000000000000000000000000000000000000000000000000815260040161065d90610b57565b60405180910390fd5b807f360894a13ba1a3210667c828492db98dca3e2076cc3735a920a3ca505d382bbc5550565b6000602254905090565b565b60007f360894a13ba1a3210667c828492db98dca3e2076cc3735a920a3ca505d382bbc54905090565b3660008037600080366000845af43d6000803e80600081146106e2573d6000f35b3d6000fd5b8280546106f390610cd2565b90600052602060002090601f016020900481019282610715576000855561075c565b82601f1061072e57803560ff191683800117855561075c565b8280016001018555821561075c579182015b8281111561075b578235825591602001919060010190610740565b5b509050610769919061076d565b5090565b5b8082111561078657600081600090555060010161076e565b5090565b60008135905061079981610e30565b92915050565b60008083601f8401126107b5576107b4610d67565b5b8235905067ffffffffffffffff8111156107d2576107d1610d62565b5b6020830191508360018202830111156107ee576107ed610d6c565b5b9250929050565b60008135905061080481610e47565b92915050565b6000602082840312156108205761081f610d76565b5b600061082e8482850161078a565b91505092915050565b60008060008060008060006080888a03121561085657610855610d76565b5b600088013567ffffffffffffffff81111561087457610873610d71565b5b6108808a828b0161079f565b9750975050602088013567ffffffffffffffff8111156108a3576108a2610d71565b5b6108af8a828b0161079f565b9550955050604088013567ffffffffffffffff8111156108d2576108d1610d71565b5b6108de8a828b0161079f565b935093505060606108f18a828b016107f5565b91505092959891949750929550565b61090981610c35565b82525050565b600061091a82610bf2565b6109248185610c08565b9350610934818560208601610c9f565b61093d81610d7b565b840191505092915050565b600061095382610bf2565b61095d8185610c19565b935061096d818560208601610c9f565b80840191505092915050565b61098281610c7e565b82525050565b60006109948385610c24565b93506109a1838584610c90565b6109aa83610d7b565b840190509392505050565b60006109c082610bfd565b6109ca8185610c24565b93506109da818560208601610c9f565b6109e381610d7b565b840191505092915050565b60006109fb601183610c24565b9150610a0682610d8c565b602082019050919050565b6000610a1e600f83610c24565b9150610a2982610db5565b602082019050919050565b6000610a41600b83610c24565b9150610a4c82610dde565b602082019050919050565b6000610a64601783610c24565b9150610a6f82610e07565b602082019050919050565b610a8381610c67565b82525050565b6000610a958284610948565b915081905092915050565b6000608082019050610ab56000830189610900565b610ac26020830188610979565b8181036040830152610ad5818688610988565b90508181036060830152610aea818486610988565b9050979650505050505050565b6000606082019050610b0c6000830186610900565b610b196020830185610a7a565b8181036040830152610b2b818461090f565b9050949350505050565b60006020820190508181036000830152610b4f81846109b5565b905092915050565b60006020820190508181036000830152610b70816109ee565b9050919050565b60006020820190508181036000830152610b9081610a11565b9050919050565b60006020820190508181036000830152610bb081610a34565b9050919050565b60006020820190508181036000830152610bd081610a57565b9050919050565b6000602082019050610bec6000830184610a7a565b92915050565b600081519050919050565b600081519050919050565b600082825260208201905092915050565b600081905092915050565b600082825260208201905092915050565b6000610c4082610c47565b9050919050565b600073ffffffffffffffffffffffffffffffffffffffff82169050919050565b6000819050919050565b600060ff82169050919050565b6000610c8982610c71565b9050919050565b82818337600083830152505050565b60005b83811015610cbd578082015181840152602081019050610ca2565b83811115610ccc576000848401525b50505050565b60006002820490506001821680610cea57607f821691505b60208210811415610cfe57610cfd610d04565b5b50919050565b7f4e487b7100000000000000000000000000000000000000000000000000000000600052602260045260246000fd5b7f4e487b7100000000000000000000000000000000000000000000000000000000600052604160045260246000fd5b600080fd5b600080fd5b600080fd5b600080fd5b600080fd5b6000601f19601f8301169050919050565b7f555550533a20696e697469616c697a6564000000000000000000000000000000600082015250565b7f73656c664d696e74206661696c65640000000000000000000000000000000000600082015250565b7f696e6974206661696c6564000000000000000000000000000000000000000000600082015250565b7f5555505350726f78793a207a65726f2061646472657373000000000000000000600082015250565b610e3981610c35565b8114610e4457600080fd5b50565b610e5081610c67565b8114610e5b57600080fd5b5056fea26469706673582212207099c58da57699e293eca5dfdd89642fdbee36852af851db33afe49f88d3c1d564736f6c63430008070033",
  "immutableReferences": {},
  "source": "// SPDX-License-Identifier: MIT\npragma solidity ^0.8.7;\nimport { SuperTokenBase } from \"./SuperTokenBase.sol\";\nimport { UUPSProxy } from \"./UUPSProxy.sol\";\n\ncontract SuperJuicyToken is SuperTokenBase, UUPSProxy {\n    string internal _message;\n    string internal _name;\n    uint256 internal _initialSupply;\n    function initialize (\n        string calldata name,\n        string calldata symbol,\n        string calldata message,\n        uint256 initialSupply\n      ) external {\n        bool success;\n        (success, ) = address(this).call(\n            abi.encodeWithSignature(\n                \"initialize(address,uint8,string,string)\",\n                address(0),\n                18,\n                name,\n                symbol\n            )\n        );\n        require(success, \"init failed\");\n        (success, ) = address(this).call(\n            abi.encodeWithSignature(\n                \"selfMint(address,uint256,bytes)\",\n                msg.sender,\n                initialSupply,\n                new bytes(0)\n            )\n        );\n        require(success, \"selfMint failed\");\n        _message = message;\n        _initialSupply = initialSupply;\n        _name = name;\n    }\n\n    function readMessage()\n        public\n        view\n        returns(string memory)\n      {\n        return _message;\n    }\n\n    function readSupply()\n        public\n        view\n        returns(uint256)\n      {\n        return _initialSupply;\n    }\n\n    function readName()\n        public\n        view\n        returns(string memory)\n      {\n        return _name;\n    }\n}\n\n",
  "sourcePath": "/Volumes/ChocoFlash/Work/tBotExperiment/contracts/SuperJuicyToken.sol",
  "compiler": {
    "name": "solc",
    "version": "0.8.7+commit.e28d00a7.Emscripten.clang"
  },
  "schemaVersion": "3.4.4",
  "updatedAt": "2022-06-10T21:28:02.588Z",
  "networkType": "ethereum",
  "devdoc": {
    "kind": "dev",
    "methods": {},
    "version": 1
  },
  "userdoc": {
    "kind": "user",
    "methods": {},
    "version": 1
  }
}