{
  "contractName": "Treasury",
  "abi": [
    {
      "inputs": [],
      "stateMutability": "payable",
      "type": "constructor",
      "payable": true
    },
    {
      "anonymous": false,
      "inputs": [
        {
          "indexed": true,
          "internalType": "address",
          "name": "account",
          "type": "address"
        },
        {
          "indexed": true,
          "internalType": "address",
          "name": "operator",
          "type": "address"
        },
        {
          "indexed": false,
          "internalType": "bool",
          "name": "approved",
          "type": "bool"
        }
      ],
      "name": "ApprovalForAll",
      "type": "event"
    },
    {
      "anonymous": false,
      "inputs": [
        {
          "indexed": false,
          "internalType": "address",
          "name": "_sender",
          "type": "address"
        },
        {
          "indexed": false,
          "internalType": "uint256",
          "name": "_value",
          "type": "uint256"
        }
      ],
      "name": "Assignment",
      "type": "event"
    },
    {
      "anonymous": false,
      "inputs": [
        {
          "indexed": false,
          "internalType": "address",
          "name": "_newOwner",
          "type": "address"
        }
      ],
      "name": "Bankruptcy",
      "type": "event"
    },
    {
      "anonymous": false,
      "inputs": [
        {
          "indexed": false,
          "internalType": "address",
          "name": "_sender",
          "type": "address"
        },
        {
          "indexed": false,
          "internalType": "uint256",
          "name": "_value",
          "type": "uint256"
        }
      ],
      "name": "OutSourcing",
      "type": "event"
    },
    {
      "anonymous": false,
      "inputs": [
        {
          "indexed": true,
          "internalType": "address",
          "name": "previousOwner",
          "type": "address"
        },
        {
          "indexed": true,
          "internalType": "address",
          "name": "newOwner",
          "type": "address"
        }
      ],
      "name": "OwnershipTransferred",
      "type": "event"
    },
    {
      "anonymous": false,
      "inputs": [
        {
          "indexed": false,
          "internalType": "address",
          "name": "account",
          "type": "address"
        }
      ],
      "name": "Paused",
      "type": "event"
    },
    {
      "anonymous": false,
      "inputs": [
        {
          "indexed": false,
          "internalType": "bytes",
          "name": "_data",
          "type": "bytes"
        }
      ],
      "name": "SentFee",
      "type": "event"
    },
    {
      "anonymous": false,
      "inputs": [
        {
          "indexed": false,
          "internalType": "address",
          "name": "_refered",
          "type": "address"
        },
        {
          "indexed": false,
          "internalType": "address",
          "name": "_refering",
          "type": "address"
        }
      ],
      "name": "SettedReferer",
      "type": "event"
    },
    {
      "anonymous": false,
      "inputs": [
        {
          "indexed": true,
          "internalType": "address",
          "name": "operator",
          "type": "address"
        },
        {
          "indexed": true,
          "internalType": "address",
          "name": "from",
          "type": "address"
        },
        {
          "indexed": true,
          "internalType": "address",
          "name": "to",
          "type": "address"
        },
        {
          "indexed": false,
          "internalType": "uint256[]",
          "name": "ids",
          "type": "uint256[]"
        },
        {
          "indexed": false,
          "internalType": "uint256[]",
          "name": "values",
          "type": "uint256[]"
        }
      ],
      "name": "TransferBatch",
      "type": "event"
    },
    {
      "anonymous": false,
      "inputs": [
        {
          "indexed": true,
          "internalType": "address",
          "name": "operator",
          "type": "address"
        },
        {
          "indexed": true,
          "internalType": "address",
          "name": "from",
          "type": "address"
        },
        {
          "indexed": true,
          "internalType": "address",
          "name": "to",
          "type": "address"
        },
        {
          "indexed": false,
          "internalType": "uint256",
          "name": "id",
          "type": "uint256"
        },
        {
          "indexed": false,
          "internalType": "uint256",
          "name": "value",
          "type": "uint256"
        }
      ],
      "name": "TransferSingle",
      "type": "event"
    },
    {
      "anonymous": false,
      "inputs": [
        {
          "indexed": false,
          "internalType": "string",
          "name": "value",
          "type": "string"
        },
        {
          "indexed": true,
          "internalType": "uint256",
          "name": "id",
          "type": "uint256"
        }
      ],
      "name": "URI",
      "type": "event"
    },
    {
      "anonymous": false,
      "inputs": [
        {
          "indexed": false,
          "internalType": "address",
          "name": "account",
          "type": "address"
        }
      ],
      "name": "Unpaused",
      "type": "event"
    },
    {
      "anonymous": false,
      "inputs": [
        {
          "indexed": false,
          "internalType": "uint256",
          "name": "_value",
          "type": "uint256"
        },
        {
          "indexed": false,
          "internalType": "address",
          "name": "_address",
          "type": "address"
        }
      ],
      "name": "Withdrawal",
      "type": "event"
    },
    {
      "inputs": [
        {
          "internalType": "address",
          "name": "account",
          "type": "address"
        },
        {
          "internalType": "uint256",
          "name": "id",
          "type": "uint256"
        }
      ],
      "name": "balanceOf",
      "outputs": [
        {
          "internalType": "uint256",
          "name": "",
          "type": "uint256"
        }
      ],
      "stateMutability": "view",
      "type": "function",
      "constant": true
    },
    {
      "inputs": [
        {
          "internalType": "address[]",
          "name": "accounts",
          "type": "address[]"
        },
        {
          "internalType": "uint256[]",
          "name": "ids",
          "type": "uint256[]"
        }
      ],
      "name": "balanceOfBatch",
      "outputs": [
        {
          "internalType": "uint256[]",
          "name": "",
          "type": "uint256[]"
        }
      ],
      "stateMutability": "view",
      "type": "function",
      "constant": true
    },
    {
      "inputs": [
        {
          "internalType": "address",
          "name": "account",
          "type": "address"
        },
        {
          "internalType": "uint256",
          "name": "id",
          "type": "uint256"
        },
        {
          "internalType": "uint256",
          "name": "value",
          "type": "uint256"
        }
      ],
      "name": "burn",
      "outputs": [],
      "stateMutability": "nonpayable",
      "type": "function"
    },
    {
      "inputs": [
        {
          "internalType": "address",
          "name": "account",
          "type": "address"
        },
        {
          "internalType": "uint256[]",
          "name": "ids",
          "type": "uint256[]"
        },
        {
          "internalType": "uint256[]",
          "name": "values",
          "type": "uint256[]"
        }
      ],
      "name": "burnBatch",
      "outputs": [],
      "stateMutability": "nonpayable",
      "type": "function"
    },
    {
      "inputs": [
        {
          "internalType": "uint256",
          "name": "id",
          "type": "uint256"
        }
      ],
      "name": "exists",
      "outputs": [
        {
          "internalType": "bool",
          "name": "",
          "type": "bool"
        }
      ],
      "stateMutability": "view",
      "type": "function",
      "constant": true
    },
    {
      "inputs": [
        {
          "internalType": "address",
          "name": "account",
          "type": "address"
        },
        {
          "internalType": "address",
          "name": "operator",
          "type": "address"
        }
      ],
      "name": "isApprovedForAll",
      "outputs": [
        {
          "internalType": "bool",
          "name": "",
          "type": "bool"
        }
      ],
      "stateMutability": "view",
      "type": "function",
      "constant": true
    },
    {
      "inputs": [],
      "name": "owner",
      "outputs": [
        {
          "internalType": "address",
          "name": "",
          "type": "address"
        }
      ],
      "stateMutability": "view",
      "type": "function",
      "constant": true
    },
    {
      "inputs": [],
      "name": "paused",
      "outputs": [
        {
          "internalType": "bool",
          "name": "",
          "type": "bool"
        }
      ],
      "stateMutability": "view",
      "type": "function",
      "constant": true
    },
    {
      "inputs": [
        {
          "internalType": "address",
          "name": "",
          "type": "address"
        }
      ],
      "name": "referer",
      "outputs": [
        {
          "internalType": "address",
          "name": "",
          "type": "address"
        }
      ],
      "stateMutability": "view",
      "type": "function",
      "constant": true
    },
    {
      "inputs": [],
      "name": "refererRegister",
      "outputs": [
        {
          "internalType": "uint256",
          "name": "",
          "type": "uint256"
        }
      ],
      "stateMutability": "view",
      "type": "function",
      "constant": true
    },
    {
      "inputs": [],
      "name": "renounceOwnership",
      "outputs": [],
      "stateMutability": "nonpayable",
      "type": "function"
    },
    {
      "inputs": [
        {
          "internalType": "address",
          "name": "from",
          "type": "address"
        },
        {
          "internalType": "address",
          "name": "to",
          "type": "address"
        },
        {
          "internalType": "uint256[]",
          "name": "ids",
          "type": "uint256[]"
        },
        {
          "internalType": "uint256[]",
          "name": "amounts",
          "type": "uint256[]"
        },
        {
          "internalType": "bytes",
          "name": "data",
          "type": "bytes"
        }
      ],
      "name": "safeBatchTransferFrom",
      "outputs": [],
      "stateMutability": "nonpayable",
      "type": "function"
    },
    {
      "inputs": [
        {
          "internalType": "address",
          "name": "from",
          "type": "address"
        },
        {
          "internalType": "address",
          "name": "to",
          "type": "address"
        },
        {
          "internalType": "uint256",
          "name": "id",
          "type": "uint256"
        },
        {
          "internalType": "uint256",
          "name": "amount",
          "type": "uint256"
        },
        {
          "internalType": "bytes",
          "name": "data",
          "type": "bytes"
        }
      ],
      "name": "safeTransferFrom",
      "outputs": [],
      "stateMutability": "nonpayable",
      "type": "function"
    },
    {
      "inputs": [
        {
          "internalType": "address",
          "name": "operator",
          "type": "address"
        },
        {
          "internalType": "bool",
          "name": "approved",
          "type": "bool"
        }
      ],
      "name": "setApprovalForAll",
      "outputs": [],
      "stateMutability": "nonpayable",
      "type": "function"
    },
    {
      "inputs": [
        {
          "internalType": "bytes4",
          "name": "interfaceId",
          "type": "bytes4"
        }
      ],
      "name": "supportsInterface",
      "outputs": [
        {
          "internalType": "bool",
          "name": "",
          "type": "bool"
        }
      ],
      "stateMutability": "view",
      "type": "function",
      "constant": true
    },
    {
      "inputs": [
        {
          "internalType": "uint256",
          "name": "id",
          "type": "uint256"
        }
      ],
      "name": "totalSupply",
      "outputs": [
        {
          "internalType": "uint256",
          "name": "",
          "type": "uint256"
        }
      ],
      "stateMutability": "view",
      "type": "function",
      "constant": true
    },
    {
      "inputs": [
        {
          "internalType": "address",
          "name": "newOwner",
          "type": "address"
        }
      ],
      "name": "transferOwnership",
      "outputs": [],
      "stateMutability": "nonpayable",
      "type": "function"
    },
    {
      "inputs": [],
      "name": "treasuryBalance",
      "outputs": [
        {
          "internalType": "uint256",
          "name": "",
          "type": "uint256"
        }
      ],
      "stateMutability": "view",
      "type": "function",
      "constant": true
    },
    {
      "inputs": [
        {
          "internalType": "address",
          "name": "",
          "type": "address"
        }
      ],
      "name": "treasuryBalanceOf",
      "outputs": [
        {
          "internalType": "uint256",
          "name": "",
          "type": "uint256"
        }
      ],
      "stateMutability": "view",
      "type": "function",
      "constant": true
    },
    {
      "inputs": [],
      "name": "treasuryBox",
      "outputs": [
        {
          "internalType": "address payable",
          "name": "",
          "type": "address"
        }
      ],
      "stateMutability": "view",
      "type": "function",
      "constant": true
    },
    {
      "inputs": [],
      "name": "treasuryCoinPrice",
      "outputs": [
        {
          "internalType": "uint256",
          "name": "",
          "type": "uint256"
        }
      ],
      "stateMutability": "view",
      "type": "function",
      "constant": true
    },
    {
      "inputs": [
        {
          "internalType": "uint256",
          "name": "",
          "type": "uint256"
        }
      ],
      "name": "uri",
      "outputs": [
        {
          "internalType": "string",
          "name": "",
          "type": "string"
        }
      ],
      "stateMutability": "view",
      "type": "function",
      "constant": true
    },
    {
      "inputs": [
        {
          "internalType": "uint256",
          "name": "_polygonPrice",
          "type": "uint256"
        }
      ],
      "name": "setTreasuryEuroPrice",
      "outputs": [],
      "stateMutability": "nonpayable",
      "type": "function"
    },
    {
      "inputs": [],
      "name": "getBalance",
      "outputs": [
        {
          "internalType": "uint256",
          "name": "",
          "type": "uint256"
        }
      ],
      "stateMutability": "view",
      "type": "function",
      "constant": true
    },
    {
      "inputs": [],
      "name": "withdrawMoney",
      "outputs": [],
      "stateMutability": "nonpayable",
      "type": "function"
    },
    {
      "inputs": [
        {
          "internalType": "address",
          "name": "_referring",
          "type": "address"
        },
        {
          "internalType": "address",
          "name": "_referred",
          "type": "address"
        }
      ],
      "name": "setReferer",
      "outputs": [],
      "stateMutability": "nonpayable",
      "type": "function"
    },
    {
      "inputs": [],
      "name": "outSourcing",
      "outputs": [],
      "stateMutability": "payable",
      "type": "function",
      "payable": true
    },
    {
      "inputs": [],
      "name": "assignment",
      "outputs": [],
      "stateMutability": "payable",
      "type": "function",
      "payable": true
    },
    {
      "inputs": [
        {
          "internalType": "uint256",
          "name": "_value",
          "type": "uint256"
        },
        {
          "internalType": "address",
          "name": "_address",
          "type": "address"
        }
      ],
      "name": "withdrawFrom",
      "outputs": [],
      "stateMutability": "nonpayable",
      "type": "function"
    },
    {
      "inputs": [],
      "name": "bankruptcy",
      "outputs": [],
      "stateMutability": "nonpayable",
      "type": "function"
    },
    {
      "inputs": [
        {
          "internalType": "address payable",
          "name": "_newTreasuryBox",
          "type": "address"
        }
      ],
      "name": "setTreasuryBox",
      "outputs": [],
      "stateMutability": "nonpayable",
      "type": "function"
    },
    {
      "inputs": [
        {
          "internalType": "string",
          "name": "newuri",
          "type": "string"
        }
      ],
      "name": "setURI",
      "outputs": [],
      "stateMutability": "nonpayable",
      "type": "function"
    },
    {
      "inputs": [],
      "name": "pause",
      "outputs": [],
      "stateMutability": "nonpayable",
      "type": "function"
    },
    {
      "inputs": [],
      "name": "unpause",
      "outputs": [],
      "stateMutability": "nonpayable",
      "type": "function"
    },
    {
      "inputs": [
        {
          "internalType": "address",
          "name": "account",
          "type": "address"
        },
        {
          "internalType": "uint256",
          "name": "id",
          "type": "uint256"
        },
        {
          "internalType": "uint256",
          "name": "amount",
          "type": "uint256"
        },
        {
          "internalType": "bytes",
          "name": "data",
          "type": "bytes"
        }
      ],
      "name": "mint",
      "outputs": [],
      "stateMutability": "nonpayable",
      "type": "function"
    },
    {
      "inputs": [
        {
          "internalType": "address",
          "name": "to",
          "type": "address"
        },
        {
          "internalType": "uint256[]",
          "name": "ids",
          "type": "uint256[]"
        },
        {
          "internalType": "uint256[]",
          "name": "amounts",
          "type": "uint256[]"
        },
        {
          "internalType": "bytes",
          "name": "data",
          "type": "bytes"
        }
      ],
      "name": "mintBatch",
      "outputs": [],
      "stateMutability": "nonpayable",
      "type": "function"
    }
  ],
  "bytecode": "0x60806040526040518060200160405280600081525062000025816200013560201b60201c565b50620000466200003a6200015160201b60201c565b6200015960201b60201c565b6000600360146101000a81548160ff02191690831515021790555033600660006101000a81548173ffffffffffffffffffffffffffffffffffffffff021916908373ffffffffffffffffffffffffffffffffffffffff16021790555030600860003373ffffffffffffffffffffffffffffffffffffffff1673ffffffffffffffffffffffffffffffffffffffff16815260200190815260200160002060006101000a81548173ffffffffffffffffffffffffffffffffffffffff021916908373ffffffffffffffffffffffffffffffffffffffff160217905550670de0b6b3a764000060098190555062000334565b80600290805190602001906200014d9291906200021f565b5050565b600033905090565b6000600360009054906101000a900473ffffffffffffffffffffffffffffffffffffffff16905081600360006101000a81548173ffffffffffffffffffffffffffffffffffffffff021916908373ffffffffffffffffffffffffffffffffffffffff1602179055508173ffffffffffffffffffffffffffffffffffffffff168173ffffffffffffffffffffffffffffffffffffffff167f8be0079c531659141344cd1fd0a4f28419497f9722a3daafe3b4186f6b6457e060405160405180910390a35050565b8280546200022d90620002cf565b90600052602060002090601f0160209004810192826200025157600085556200029d565b82601f106200026c57805160ff19168380011785556200029d565b828001600101855582156200029d579182015b828111156200029c5782518255916020019190600101906200027f565b5b509050620002ac9190620002b0565b5090565b5b80821115620002cb576000816000905550600101620002b1565b5090565b60006002820490506001821680620002e857607f821691505b60208210811415620002ff57620002fe62000305565b5b50919050565b7f4e487b7100000000000000000000000000000000000000000000000000000000600052602260045260246000fd5b615c4780620003446000396000f3fe60806040526004361061020e5760003560e01c80637dd08c6111610118578063bcbc2286116100a0578063f2fde38b1161006f578063f2fde38b1461071c578063f4a8b19714610745578063f5298aca14610782578063f63eedfd146107ab578063fcad422e146107d65761020e565b8063bcbc228614610650578063bd85b03914610679578063e985e9c5146106b6578063f242432a146106f35761020e565b8063901a3f3a116100e7578063901a3f3a146105b4578063a22cb465146105dd578063ac44600214610606578063acf4f1131461061d578063b1cbf888146106275761020e565b80637dd08c611461051e5780638456cb59146105495780638c2c54fa146105605780638da5cb5b146105895761020e565b8063313dab201161019b5780635c975abb1161016a5780635c975abb146104805780636b20c454146104ab578063715018a6146104d457806371ca2ecf146104eb578063731133e9146104f55761020e565b8063313dab20146103c45780633f4ba83a146103ef5780634e1273f4146104065780634f558e79146104435761020e565b80630e89341c116101e25780630e89341c146102f357806312065fe01461033057806312de9c8a1461035b5780631f7fdffa146103725780632eb2c2d61461039b5761020e565b8062fdd58e1461021357806301ffc9a71461025057806302fe53051461028d5780630ad067a4146102b6575b600080fd5b34801561021f57600080fd5b5061023a60048036038101906102359190614188565b610801565b6040516102479190614e26565b60405180910390f35b34801561025c57600080fd5b5061027760048036038101906102729190614316565b6108ca565b6040516102849190614ac9565b60405180910390f35b34801561029957600080fd5b506102b460048036038101906102af9190614370565b6109ac565b005b3480156102c257600080fd5b506102dd60048036038101906102d89190613e02565b610a34565b6040516102ea9190614e26565b60405180910390f35b3480156102ff57600080fd5b5061031a600480360381019061031591906143b9565b610a4c565b6040516103279190614ae4565b60405180910390f35b34801561033c57600080fd5b50610345610ae0565b6040516103529190614e26565b60405180910390f35b34801561036757600080fd5b50610370610ae8565b005b34801561037e57600080fd5b506103996004803603810190610394919061408d565b610c16565b005b3480156103a757600080fd5b506103c260048036038101906103bd9190613e9c565b610ca4565b005b3480156103d057600080fd5b506103d9610d45565b6040516103e69190614e26565b60405180910390f35b3480156103fb57600080fd5b50610404610d4b565b005b34801561041257600080fd5b5061042d6004803603810190610428919061429e565b610dd1565b60405161043a9190614a70565b60405180910390f35b34801561044f57600080fd5b5061046a600480360381019061046591906143b9565b610eea565b6040516104779190614ac9565b60405180910390f35b34801561048c57600080fd5b50610495610efe565b6040516104a29190614ac9565b60405180910390f35b3480156104b757600080fd5b506104d260048036038101906104cd9190614002565b610f15565b005b3480156104e057600080fd5b506104e9610fb2565b005b6104f361103a565b005b34801561050157600080fd5b5061051c6004803603810190610517919061421b565b6114c7565b005b34801561052a57600080fd5b50610533611555565b6040516105409190614e26565b60405180910390f35b34801561055557600080fd5b5061055e61155b565b005b34801561056c57600080fd5b5061058760048036038101906105829190613e5c565b6115e1565b005b34801561059557600080fd5b5061059e6117e6565b6040516105ab919061490b565b60405180910390f35b3480156105c057600080fd5b506105db60048036038101906105d691906143b9565b611810565b005b3480156105e957600080fd5b5061060460048036038101906105ff9190614148565b611896565b005b34801561061257600080fd5b5061061b6118ac565b005b61062561197e565b005b34801561063357600080fd5b5061064e600480360381019061064991906143e6565b611ba8565b005b34801561065c57600080fd5b5061067760048036038101906106729190613e2f565b611d5e565b005b34801561068557600080fd5b506106a0600480360381019061069b91906143b9565b611e1e565b6040516106ad9190614e26565b60405180910390f35b3480156106c257600080fd5b506106dd60048036038101906106d89190613e5c565b611e3b565b6040516106ea9190614ac9565b60405180910390f35b3480156106ff57600080fd5b5061071a60048036038101906107159190613f6b565b611ecf565b005b34801561072857600080fd5b50610743600480360381019061073e9190613e02565b611f70565b005b34801561075157600080fd5b5061076c60048036038101906107679190613e02565b612068565b604051610779919061490b565b60405180910390f35b34801561078e57600080fd5b506107a960048036038101906107a491906141c8565b61209b565b005b3480156107b757600080fd5b506107c0612138565b6040516107cd9190614e26565b60405180910390f35b3480156107e257600080fd5b506107eb61213e565b6040516107f89190614941565b60405180910390f35b60008073ffffffffffffffffffffffffffffffffffffffff168373ffffffffffffffffffffffffffffffffffffffff161415610872576040517f08c379a000000000000000000000000000000000000000000000000000000000815260040161086990614b66565b60405180910390fd5b60008083815260200190815260200160002060008473ffffffffffffffffffffffffffffffffffffffff1673ffffffffffffffffffffffffffffffffffffffff16815260200190815260200160002054905092915050565b60007fd9b67a26000000000000000000000000000000000000000000000000000000007bffffffffffffffffffffffffffffffffffffffffffffffffffffffff1916827bffffffffffffffffffffffffffffffffffffffffffffffffffffffff1916148061099557507f0e89341c000000000000000000000000000000000000000000000000000000007bffffffffffffffffffffffffffffffffffffffffffffffffffffffff1916827bffffffffffffffffffffffffffffffffffffffffffffffffffffffff1916145b806109a557506109a482612164565b5b9050919050565b6109b46121ce565b73ffffffffffffffffffffffffffffffffffffffff166109d26117e6565b73ffffffffffffffffffffffffffffffffffffffff1614610a28576040517f08c379a0000000000000000000000000000000000000000000000000000000008152600401610a1f90614d26565b60405180910390fd5b610a31816121d6565b50565b60076020528060005260406000206000915090505481565b606060028054610a5b90615242565b80601f0160208091040260200160405190810160405280929190818152602001828054610a8790615242565b8015610ad45780601f10610aa957610100808354040283529160200191610ad4565b820191906000526020600020905b815481529060010190602001808311610ab757829003601f168201915b50505050509050919050565b600047905090565b610af06121ce565b73ffffffffffffffffffffffffffffffffffffffff16610b0e6117e6565b73ffffffffffffffffffffffffffffffffffffffff1614610b64576040517f08c379a0000000000000000000000000000000000000000000000000000000008152600401610b5b90614d26565b60405180910390fd5b6000610b6e610efe565b905080610bb0576040517f08c379a0000000000000000000000000000000000000000000000000000000008152600401610ba790614c46565b60405180910390fd5b610bba6000611d5e565b7fea57c6c4e9fd9772a6debb5b8582368cdecd8ebb0b370f179e49661d76fa9d63600660009054906101000a900473ffffffffffffffffffffffffffffffffffffffff16604051610c0b9190614926565b60405180910390a150565b610c1e6121ce565b73ffffffffffffffffffffffffffffffffffffffff16610c3c6117e6565b73ffffffffffffffffffffffffffffffffffffffff1614610c92576040517f08c379a0000000000000000000000000000000000000000000000000000000008152600401610c8990614d26565b60405180910390fd5b610c9e848484846121f0565b50505050565b610cac6121ce565b73ffffffffffffffffffffffffffffffffffffffff168573ffffffffffffffffffffffffffffffffffffffff161480610cf25750610cf185610cec6121ce565b611e3b565b5b610d31576040517f08c379a0000000000000000000000000000000000000000000000000000000008152600401610d2890614ca6565b60405180910390fd5b610d3e858585858561241d565b5050505050565b60055481565b610d536121ce565b73ffffffffffffffffffffffffffffffffffffffff16610d716117e6565b73ffffffffffffffffffffffffffffffffffffffff1614610dc7576040517f08c379a0000000000000000000000000000000000000000000000000000000008152600401610dbe90614d26565b60405180910390fd5b610dcf61273f565b565b60608151835114610e17576040517f08c379a0000000000000000000000000000000000000000000000000000000008152600401610e0e90614da6565b60405180910390fd5b6000835167ffffffffffffffff811115610e3457610e336153aa565b5b604051908082528060200260200182016040528015610e625781602001602082028036833780820191505090505b50905060005b8451811015610edf57610eaf858281518110610e8757610e8661537b565b5b6020026020010151858381518110610ea257610ea161537b565b5b6020026020010151610801565b828281518110610ec257610ec161537b565b5b60200260200101818152505080610ed8906152a5565b9050610e68565b508091505092915050565b600080610ef683611e1e565b119050919050565b6000600360149054906101000a900460ff16905090565b610f1d6121ce565b73ffffffffffffffffffffffffffffffffffffffff168373ffffffffffffffffffffffffffffffffffffffff161480610f635750610f6283610f5d6121ce565b611e3b565b5b610fa2576040517f08c379a0000000000000000000000000000000000000000000000000000000008152600401610f9990614be6565b60405180910390fd5b610fad8383836127e1565b505050565b610fba6121ce565b73ffffffffffffffffffffffffffffffffffffffff16610fd86117e6565b73ffffffffffffffffffffffffffffffffffffffff161461102e576040517f08c379a000000000000000000000000000000000000000000000000000000000815260040161102590614d26565b60405180910390fd5b6110386000612ab0565b565b600073ffffffffffffffffffffffffffffffffffffffff16600860003373ffffffffffffffffffffffffffffffffffffffff1673ffffffffffffffffffffffffffffffffffffffff16815260200190815260200160002060009054906101000a900473ffffffffffffffffffffffffffffffffffffffff1673ffffffffffffffffffffffffffffffffffffffff161415611109576040517f08c379a000000000000000000000000000000000000000000000000000000000815260040161110090614cc6565b60405180910390fd5b670de0b6b3a7640000341015611154576040517f08c379a000000000000000000000000000000000000000000000000000000000815260040161114b90614d66565b60405180910390fd5b6000600660009054906101000a900473ffffffffffffffffffffffffffffffffffffffff1673ffffffffffffffffffffffffffffffffffffffff163460405161119c906148f6565b60006040518083038185875af1925050503d80600081146111d9576040519150601f19603f3d011682016040523d82523d6000602084013e6111de565b606091505b50509050605a670de0b6b3a7640000600954346111fb9190615075565b6112059190615044565b61120f9190615044565b600560008282546112209190614fee565b925050819055506000600a905060006064670de0b6b3a7640000600954346112489190615075565b6112529190615044565b61125c9190615044565b905060003390505b60008360ff16111561144857600073ffffffffffffffffffffffffffffffffffffffff16600860008373ffffffffffffffffffffffffffffffffffffffff1673ffffffffffffffffffffffffffffffffffffffff16815260200190815260200160002060009054906101000a900473ffffffffffffffffffffffffffffffffffffffff1673ffffffffffffffffffffffffffffffffffffffff16146113d2578160076000600860008573ffffffffffffffffffffffffffffffffffffffff1673ffffffffffffffffffffffffffffffffffffffff16815260200190815260200160002060009054906101000a900473ffffffffffffffffffffffffffffffffffffffff1673ffffffffffffffffffffffffffffffffffffffff1673ffffffffffffffffffffffffffffffffffffffff16815260200190815260200160002060008282546113b19190614fee565b9250508190555081600560008282546113ca9190614fee565b925050819055505b600860008273ffffffffffffffffffffffffffffffffffffffff1673ffffffffffffffffffffffffffffffffffffffff16815260200190815260200160002060009054906101000a900473ffffffffffffffffffffffffffffffffffffffff1690506001836114419190615103565b9250611264565b7f2240db94b02dfa2b50c35b3a14d1791de977e7b953790806966f2888f0f0eda33334604051611479929190614a47565b60405180910390a1836114c1576040517f08c379a00000000000000000000000000000000000000000000000000000000081526004016114b890614c06565b60405180910390fd5b50505050565b6114cf6121ce565b73ffffffffffffffffffffffffffffffffffffffff166114ed6117e6565b73ffffffffffffffffffffffffffffffffffffffff1614611543576040517f08c379a000000000000000000000000000000000000000000000000000000000815260040161153a90614d26565b60405180910390fd5b61154f84848484612b76565b50505050565b600a5481565b6115636121ce565b73ffffffffffffffffffffffffffffffffffffffff166115816117e6565b73ffffffffffffffffffffffffffffffffffffffff16146115d7576040517f08c379a00000000000000000000000000000000000000000000000000000000081526004016115ce90614d26565b60405180910390fd5b6115df612d27565b565b6115e96121ce565b73ffffffffffffffffffffffffffffffffffffffff166116076117e6565b73ffffffffffffffffffffffffffffffffffffffff161461165d576040517f08c379a000000000000000000000000000000000000000000000000000000000815260040161165490614d26565b60405180910390fd5b600073ffffffffffffffffffffffffffffffffffffffff16600860008373ffffffffffffffffffffffffffffffffffffffff1673ffffffffffffffffffffffffffffffffffffffff16815260200190815260200160002060009054906101000a900473ffffffffffffffffffffffffffffffffffffffff1673ffffffffffffffffffffffffffffffffffffffff161461172b576040517f08c379a000000000000000000000000000000000000000000000000000000000815260040161172290614e06565b60405180910390fd5b81600860008373ffffffffffffffffffffffffffffffffffffffff1673ffffffffffffffffffffffffffffffffffffffff16815260200190815260200160002060006101000a81548173ffffffffffffffffffffffffffffffffffffffff021916908373ffffffffffffffffffffffffffffffffffffffff1602179055507f2eaee33a45a808b407f386fc59c362f531bcac50128fb7c1534da68bfb7e272082826040516117da92919061495c565b60405180910390a15050565b6000600360009054906101000a900473ffffffffffffffffffffffffffffffffffffffff16905090565b6118186121ce565b73ffffffffffffffffffffffffffffffffffffffff166118366117e6565b73ffffffffffffffffffffffffffffffffffffffff161461188c576040517f08c379a000000000000000000000000000000000000000000000000000000000815260040161188390614d26565b60405180910390fd5b8060098190555050565b6118a86118a16121ce565b8383612dca565b5050565b6118b46121ce565b73ffffffffffffffffffffffffffffffffffffffff166118d26117e6565b73ffffffffffffffffffffffffffffffffffffffff1614611928576040517f08c379a000000000000000000000000000000000000000000000000000000000815260040161191f90614d26565b60405180910390fd5b60003390508073ffffffffffffffffffffffffffffffffffffffff166108fc61194f610ae0565b9081150290604051600060405180830381858888f1935050505015801561197a573d6000803e3d6000fd5b5050565b60016009543461198e9190615044565b10156119cf576040517f08c379a00000000000000000000000000000000000000000000000000000000081526004016119c690614bc6565b60405180910390fd5b6000600660009054906101000a900473ffffffffffffffffffffffffffffffffffffffff1673ffffffffffffffffffffffffffffffffffffffff1634604051611a17906148f6565b60006040518083038185875af1925050503d8060008114611a54576040519150601f19603f3d011682016040523d82523d6000602084013e611a59565b606091505b50509050670de0b6b3a764000060095434611a749190615075565b611a7e9190615044565b600760003373ffffffffffffffffffffffffffffffffffffffff1673ffffffffffffffffffffffffffffffffffffffff1681526020019081526020016000206000828254611acc9190614fee565b92505081905550670de0b6b3a764000060095434611aea9190615075565b611af49190615044565b60056000828254611b059190614fee565b925050819055507ffa3b4ab85be6e4b69d30a11b10b2dd155ea5edb2ae00d80a3dae99e647ab35fd33670de0b6b3a764000060095434611b459190615075565b611b4f9190615044565b604051611b5d929190614a47565b60405180910390a180611ba5576040517f08c379a0000000000000000000000000000000000000000000000000000000008152600401611b9c90614c06565b60405180910390fd5b50565b611bb06121ce565b73ffffffffffffffffffffffffffffffffffffffff16611bce6117e6565b73ffffffffffffffffffffffffffffffffffffffff1614611c24576040517f08c379a0000000000000000000000000000000000000000000000000000000008152600401611c1b90614d26565b60405180910390fd5b600082600760008473ffffffffffffffffffffffffffffffffffffffff1673ffffffffffffffffffffffffffffffffffffffff16815260200190815260200160002054611c7191906150cf565b1015611cb2576040517f08c379a0000000000000000000000000000000000000000000000000000000008152600401611ca990614c26565b60405180910390fd5b81600760008373ffffffffffffffffffffffffffffffffffffffff1673ffffffffffffffffffffffffffffffffffffffff1681526020019081526020016000206000828254611d0191906150cf565b925050819055508160056000828254611d1a91906150cf565b925050819055507fd964a27d45f595739c13d8b1160b57491050cacf3a2e5602207277d6228f64ee8282604051611d52929190614e41565b60405180910390a15050565b611d666121ce565b73ffffffffffffffffffffffffffffffffffffffff16611d846117e6565b73ffffffffffffffffffffffffffffffffffffffff1614611dda576040517f08c379a0000000000000000000000000000000000000000000000000000000008152600401611dd190614d26565b60405180910390fd5b80600660006101000a81548173ffffffffffffffffffffffffffffffffffffffff021916908373ffffffffffffffffffffffffffffffffffffffff16021790555050565b600060046000838152602001908152602001600020549050919050565b6000600160008473ffffffffffffffffffffffffffffffffffffffff1673ffffffffffffffffffffffffffffffffffffffff16815260200190815260200160002060008373ffffffffffffffffffffffffffffffffffffffff1673ffffffffffffffffffffffffffffffffffffffff16815260200190815260200160002060009054906101000a900460ff16905092915050565b611ed76121ce565b73ffffffffffffffffffffffffffffffffffffffff168573ffffffffffffffffffffffffffffffffffffffff161480611f1d5750611f1c85611f176121ce565b611e3b565b5b611f5c576040517f08c379a0000000000000000000000000000000000000000000000000000000008152600401611f5390614be6565b60405180910390fd5b611f698585858585612f37565b5050505050565b611f786121ce565b73ffffffffffffffffffffffffffffffffffffffff16611f966117e6565b73ffffffffffffffffffffffffffffffffffffffff1614611fec576040517f08c379a0000000000000000000000000000000000000000000000000000000008152600401611fe390614d26565b60405180910390fd5b600073ffffffffffffffffffffffffffffffffffffffff168173ffffffffffffffffffffffffffffffffffffffff16141561205c576040517f08c379a000000000000000000000000000000000000000000000000000000000815260040161205390614b86565b60405180910390fd5b61206581612ab0565b50565b60086020528060005260406000206000915054906101000a900473ffffffffffffffffffffffffffffffffffffffff1681565b6120a36121ce565b73ffffffffffffffffffffffffffffffffffffffff168373ffffffffffffffffffffffffffffffffffffffff1614806120e957506120e8836120e36121ce565b611e3b565b5b612128576040517f08c379a000000000000000000000000000000000000000000000000000000000815260040161211f90614be6565b60405180910390fd5b6121338383836131d3565b505050565b60095481565b600660009054906101000a900473ffffffffffffffffffffffffffffffffffffffff1681565b60007f01ffc9a7000000000000000000000000000000000000000000000000000000007bffffffffffffffffffffffffffffffffffffffffffffffffffffffff1916827bffffffffffffffffffffffffffffffffffffffffffffffffffffffff1916149050919050565b600033905090565b80600290805190602001906121ec929190613ac5565b5050565b600073ffffffffffffffffffffffffffffffffffffffff168473ffffffffffffffffffffffffffffffffffffffff161415612260576040517f08c379a000000000000000000000000000000000000000000000000000000000815260040161225790614de6565b60405180910390fd5b81518351146122a4576040517f08c379a000000000000000000000000000000000000000000000000000000000815260040161229b90614dc6565b60405180910390fd5b60006122ae6121ce565b90506122bf8160008787878761341a565b60005b8451811015612378578381815181106122de576122dd61537b565b5b60200260200101516000808784815181106122fc576122fb61537b565b5b6020026020010151815260200190815260200160002060008873ffffffffffffffffffffffffffffffffffffffff1673ffffffffffffffffffffffffffffffffffffffff168152602001908152602001600020600082825461235e9190614fee565b925050819055508080612370906152a5565b9150506122c2565b508473ffffffffffffffffffffffffffffffffffffffff16600073ffffffffffffffffffffffffffffffffffffffff168273ffffffffffffffffffffffffffffffffffffffff167f4a39dc06d4c0dbc64b70af90fd698a233a518aa5d07e595d983b8c0526c8f7fb87876040516123f0929190614a92565b60405180910390a461240781600087878787613478565b61241681600087878787613480565b5050505050565b8151835114612461576040517f08c379a000000000000000000000000000000000000000000000000000000000815260040161245890614dc6565b60405180910390fd5b600073ffffffffffffffffffffffffffffffffffffffff168473ffffffffffffffffffffffffffffffffffffffff1614156124d1576040517f08c379a00000000000000000000000000000000000000000000000000000000081526004016124c890614c86565b60405180910390fd5b60006124db6121ce565b90506124eb81878787878761341a565b60005b845181101561269c57600085828151811061250c5761250b61537b565b5b60200260200101519050600085838151811061252b5761252a61537b565b5b60200260200101519050600080600084815260200190815260200160002060008b73ffffffffffffffffffffffffffffffffffffffff1673ffffffffffffffffffffffffffffffffffffffff168152602001908152602001600020549050818110156125cc576040517f08c379a00000000000000000000000000000000000000000000000000000000081526004016125c390614d06565b60405180910390fd5b81810360008085815260200190815260200160002060008c73ffffffffffffffffffffffffffffffffffffffff1673ffffffffffffffffffffffffffffffffffffffff168152602001908152602001600020819055508160008085815260200190815260200160002060008b73ffffffffffffffffffffffffffffffffffffffff1673ffffffffffffffffffffffffffffffffffffffff16815260200190815260200160002060008282546126819190614fee565b9250508190555050505080612695906152a5565b90506124ee565b508473ffffffffffffffffffffffffffffffffffffffff168673ffffffffffffffffffffffffffffffffffffffff168273ffffffffffffffffffffffffffffffffffffffff167f4a39dc06d4c0dbc64b70af90fd698a233a518aa5d07e595d983b8c0526c8f7fb8787604051612713929190614a92565b60405180910390a4612729818787878787613478565b612737818787878787613480565b505050505050565b612747610efe565b612786576040517f08c379a000000000000000000000000000000000000000000000000000000000815260040161277d90614b46565b60405180910390fd5b6000600360146101000a81548160ff0219169083151502179055507f5db9ee0a495bf2e6ff9c91a7834c1ba4fdd244a5e8aa4e537bd38aeae4b073aa6127ca6121ce565b6040516127d7919061490b565b60405180910390a1565b600073ffffffffffffffffffffffffffffffffffffffff168373ffffffffffffffffffffffffffffffffffffffff161415612851576040517f08c379a000000000000000000000000000000000000000000000000000000000815260040161284890614ce6565b60405180910390fd5b8051825114612895576040517f08c379a000000000000000000000000000000000000000000000000000000000815260040161288c90614dc6565b60405180910390fd5b600061289f6121ce565b90506128bf8185600086866040518060200160405280600081525061341a565b60005b8351811015612a0c5760008482815181106128e0576128df61537b565b5b6020026020010151905060008483815181106128ff576128fe61537b565b5b60200260200101519050600080600084815260200190815260200160002060008973ffffffffffffffffffffffffffffffffffffffff1673ffffffffffffffffffffffffffffffffffffffff168152602001908152602001600020549050818110156129a0576040517f08c379a000000000000000000000000000000000000000000000000000000000815260040161299790614ba6565b60405180910390fd5b81810360008085815260200190815260200160002060008a73ffffffffffffffffffffffffffffffffffffffff1673ffffffffffffffffffffffffffffffffffffffff168152602001908152602001600020819055505050508080612a04906152a5565b9150506128c2565b50600073ffffffffffffffffffffffffffffffffffffffff168473ffffffffffffffffffffffffffffffffffffffff168273ffffffffffffffffffffffffffffffffffffffff167f4a39dc06d4c0dbc64b70af90fd698a233a518aa5d07e595d983b8c0526c8f7fb8686604051612a84929190614a92565b60405180910390a4612aaa81856000868660405180602001604052806000815250613478565b50505050565b6000600360009054906101000a900473ffffffffffffffffffffffffffffffffffffffff16905081600360006101000a81548173ffffffffffffffffffffffffffffffffffffffff021916908373ffffffffffffffffffffffffffffffffffffffff1602179055508173ffffffffffffffffffffffffffffffffffffffff168173ffffffffffffffffffffffffffffffffffffffff167f8be0079c531659141344cd1fd0a4f28419497f9722a3daafe3b4186f6b6457e060405160405180910390a35050565b600073ffffffffffffffffffffffffffffffffffffffff168473ffffffffffffffffffffffffffffffffffffffff161415612be6576040517f08c379a0000000000000000000000000000000000000000000000000000000008152600401612bdd90614de6565b60405180910390fd5b6000612bf06121ce565b90506000612bfd85613667565b90506000612c0a85613667565b9050612c1b8360008985858961341a565b8460008088815260200190815260200160002060008973ffffffffffffffffffffffffffffffffffffffff1673ffffffffffffffffffffffffffffffffffffffff1681526020019081526020016000206000828254612c7a9190614fee565b925050819055508673ffffffffffffffffffffffffffffffffffffffff16600073ffffffffffffffffffffffffffffffffffffffff168473ffffffffffffffffffffffffffffffffffffffff167fc3d58168c5ae7397731d063d5bbf3d657854427343f4c083240f7aacaa2d0f628989604051612cf8929190614e6a565b60405180910390a4612d0f83600089858589613478565b612d1e836000898989896136e1565b50505050505050565b612d2f610efe565b15612d6f576040517f08c379a0000000000000000000000000000000000000000000000000000000008152600401612d6690614c66565b60405180910390fd5b6001600360146101000a81548160ff0219169083151502179055507f62e78cea01bee320cd4e420270b5ea74000d11b0c9f74754ebdbfc544b05a258612db36121ce565b604051612dc0919061490b565b60405180910390a1565b8173ffffffffffffffffffffffffffffffffffffffff168373ffffffffffffffffffffffffffffffffffffffff161415612e39576040517f08c379a0000000000000000000000000000000000000000000000000000000008152600401612e3090614d86565b60405180910390fd5b80600160008573ffffffffffffffffffffffffffffffffffffffff1673ffffffffffffffffffffffffffffffffffffffff16815260200190815260200160002060008473ffffffffffffffffffffffffffffffffffffffff1673ffffffffffffffffffffffffffffffffffffffff16815260200190815260200160002060006101000a81548160ff0219169083151502179055508173ffffffffffffffffffffffffffffffffffffffff168373ffffffffffffffffffffffffffffffffffffffff167f17307eab39ab6107e8899845ad3d59bd9653f200f220920489ca2b5937696c3183604051612f2a9190614ac9565b60405180910390a3505050565b600073ffffffffffffffffffffffffffffffffffffffff168473ffffffffffffffffffffffffffffffffffffffff161415612fa7576040517f08c379a0000000000000000000000000000000000000000000000000000000008152600401612f9e90614c86565b60405180910390fd5b6000612fb16121ce565b90506000612fbe85613667565b90506000612fcb85613667565b9050612fdb83898985858961341a565b600080600088815260200190815260200160002060008a73ffffffffffffffffffffffffffffffffffffffff1673ffffffffffffffffffffffffffffffffffffffff16815260200190815260200160002054905085811015613072576040517f08c379a000000000000000000000000000000000000000000000000000000000815260040161306990614d06565b60405180910390fd5b85810360008089815260200190815260200160002060008b73ffffffffffffffffffffffffffffffffffffffff1673ffffffffffffffffffffffffffffffffffffffff168152602001908152602001600020819055508560008089815260200190815260200160002060008a73ffffffffffffffffffffffffffffffffffffffff1673ffffffffffffffffffffffffffffffffffffffff16815260200190815260200160002060008282546131279190614fee565b925050819055508773ffffffffffffffffffffffffffffffffffffffff168973ffffffffffffffffffffffffffffffffffffffff168573ffffffffffffffffffffffffffffffffffffffff167fc3d58168c5ae7397731d063d5bbf3d657854427343f4c083240f7aacaa2d0f628a8a6040516131a4929190614e6a565b60405180910390a46131ba848a8a86868a613478565b6131c8848a8a8a8a8a6136e1565b505050505050505050565b600073ffffffffffffffffffffffffffffffffffffffff168373ffffffffffffffffffffffffffffffffffffffff161415613243576040517f08c379a000000000000000000000000000000000000000000000000000000000815260040161323a90614ce6565b60405180910390fd5b600061324d6121ce565b9050600061325a84613667565b9050600061326784613667565b90506132878387600085856040518060200160405280600081525061341a565b600080600087815260200190815260200160002060008873ffffffffffffffffffffffffffffffffffffffff1673ffffffffffffffffffffffffffffffffffffffff1681526020019081526020016000205490508481101561331e576040517f08c379a000000000000000000000000000000000000000000000000000000000815260040161331590614ba6565b60405180910390fd5b84810360008088815260200190815260200160002060008973ffffffffffffffffffffffffffffffffffffffff1673ffffffffffffffffffffffffffffffffffffffff16815260200190815260200160002081905550600073ffffffffffffffffffffffffffffffffffffffff168773ffffffffffffffffffffffffffffffffffffffff168573ffffffffffffffffffffffffffffffffffffffff167fc3d58168c5ae7397731d063d5bbf3d657854427343f4c083240f7aacaa2d0f6289896040516133eb929190614e6a565b60405180910390a461341184886000868660405180602001604052806000815250613478565b50505050505050565b613422610efe565b15613462576040517f08c379a000000000000000000000000000000000000000000000000000000000815260040161345990614c66565b60405180910390fd5b6134708686868686866138c8565b505050505050565b505050505050565b61349f8473ffffffffffffffffffffffffffffffffffffffff16613a9a565b1561365f578373ffffffffffffffffffffffffffffffffffffffff1663bc197c8187878686866040518663ffffffff1660e01b81526004016134e5959493929190614985565b602060405180830381600087803b1580156134ff57600080fd5b505af192505050801561353057506040513d601f19601f8201168201806040525081019061352d9190614343565b60015b6135d65761353c6153d9565b806308c379a014156135995750613551615b08565b8061355c575061359b565b806040517f08c379a00000000000000000000000000000000000000000000000000000000081526004016135909190614ae4565b60405180910390fd5b505b6040517f08c379a00000000000000000000000000000000000000000000000000000000081526004016135cd90614b06565b60405180910390fd5b63bc197c8160e01b7bffffffffffffffffffffffffffffffffffffffffffffffffffffffff1916817bffffffffffffffffffffffffffffffffffffffffffffffffffffffff19161461365d576040517f08c379a000000000000000000000000000000000000000000000000000000000815260040161365490614b26565b60405180910390fd5b505b505050505050565b60606000600167ffffffffffffffff811115613686576136856153aa565b5b6040519080825280602002602001820160405280156136b45781602001602082028036833780820191505090505b50905082816000815181106136cc576136cb61537b565b5b60200260200101818152505080915050919050565b6137008473ffffffffffffffffffffffffffffffffffffffff16613a9a565b156138c0578373ffffffffffffffffffffffffffffffffffffffff1663f23a6e6187878686866040518663ffffffff1660e01b81526004016137469594939291906149ed565b602060405180830381600087803b15801561376057600080fd5b505af192505050801561379157506040513d601f19601f8201168201806040525081019061378e9190614343565b60015b6138375761379d6153d9565b806308c379a014156137fa57506137b2615b08565b806137bd57506137fc565b806040517f08c379a00000000000000000000000000000000000000000000000000000000081526004016137f19190614ae4565b60405180910390fd5b505b6040517f08c379a000000000000000000000000000000000000000000000000000000000815260040161382e90614b06565b60405180910390fd5b63f23a6e6160e01b7bffffffffffffffffffffffffffffffffffffffffffffffffffffffff1916817bffffffffffffffffffffffffffffffffffffffffffffffffffffffff1916146138be576040517f08c379a00000000000000000000000000000000000000000000000000000000081526004016138b590614b26565b60405180910390fd5b505b505050505050565b6138d6868686868686613abd565b600073ffffffffffffffffffffffffffffffffffffffff168573ffffffffffffffffffffffffffffffffffffffff1614156139885760005b83518110156139865782818151811061392a5761392961537b565b5b6020026020010151600460008684815181106139495761394861537b565b5b60200260200101518152602001908152602001600020600082825461396e9190614fee565b925050819055508061397f906152a5565b905061390e565b505b600073ffffffffffffffffffffffffffffffffffffffff168473ffffffffffffffffffffffffffffffffffffffff161415613a925760005b8351811015613a905760008482815181106139de576139dd61537b565b5b6020026020010151905060008483815181106139fd576139fc61537b565b5b6020026020010151905060006004600084815260200190815260200160002054905081811015613a62576040517f08c379a0000000000000000000000000000000000000000000000000000000008152600401613a5990614d46565b60405180910390fd5b818103600460008581526020019081526020016000208190555050505080613a89906152a5565b90506139c0565b505b505050505050565b6000808273ffffffffffffffffffffffffffffffffffffffff163b119050919050565b505050505050565b828054613ad190615242565b90600052602060002090601f016020900481019282613af35760008555613b3a565b82601f10613b0c57805160ff1916838001178555613b3a565b82800160010185558215613b3a579182015b82811115613b39578251825591602001919060010190613b1e565b5b509050613b479190613b4b565b5090565b5b80821115613b64576000816000905550600101613b4c565b5090565b6000613b7b613b7684614eb8565b614e93565b90508083825260208201905082856020860282011115613b9e57613b9d615400565b5b60005b85811015613bce5781613bb48882613ccc565b845260208401935060208301925050600181019050613ba1565b5050509392505050565b6000613beb613be684614ee4565b614e93565b90508083825260208201905082856020860282011115613c0e57613c0d615400565b5b60005b85811015613c3e5781613c248882613ded565b845260208401935060208301925050600181019050613c11565b5050509392505050565b6000613c5b613c5684614f10565b614e93565b905082815260208101848484011115613c7757613c76615405565b5b613c82848285615200565b509392505050565b6000613c9d613c9884614f41565b614e93565b905082815260208101848484011115613cb957613cb8615405565b5b613cc4848285615200565b509392505050565b600081359050613cdb81615b9e565b92915050565b600081359050613cf081615bb5565b92915050565b600082601f830112613d0b57613d0a6153fb565b5b8135613d1b848260208601613b68565b91505092915050565b600082601f830112613d3957613d386153fb565b5b8135613d49848260208601613bd8565b91505092915050565b600081359050613d6181615bcc565b92915050565b600081359050613d7681615be3565b92915050565b600081519050613d8b81615be3565b92915050565b600082601f830112613da657613da56153fb565b5b8135613db6848260208601613c48565b91505092915050565b600082601f830112613dd457613dd36153fb565b5b8135613de4848260208601613c8a565b91505092915050565b600081359050613dfc81615bfa565b92915050565b600060208284031215613e1857613e1761540f565b5b6000613e2684828501613ccc565b91505092915050565b600060208284031215613e4557613e4461540f565b5b6000613e5384828501613ce1565b91505092915050565b60008060408385031215613e7357613e7261540f565b5b6000613e8185828601613ccc565b9250506020613e9285828601613ccc565b9150509250929050565b600080600080600060a08688031215613eb857613eb761540f565b5b6000613ec688828901613ccc565b9550506020613ed788828901613ccc565b945050604086013567ffffffffffffffff811115613ef857613ef761540a565b5b613f0488828901613d24565b935050606086013567ffffffffffffffff811115613f2557613f2461540a565b5b613f3188828901613d24565b925050608086013567ffffffffffffffff811115613f5257613f5161540a565b5b613f5e88828901613d91565b9150509295509295909350565b600080600080600060a08688031215613f8757613f8661540f565b5b6000613f9588828901613ccc565b9550506020613fa688828901613ccc565b9450506040613fb788828901613ded565b9350506060613fc888828901613ded565b925050608086013567ffffffffffffffff811115613fe957613fe861540a565b5b613ff588828901613d91565b9150509295509295909350565b60008060006060848603121561401b5761401a61540f565b5b600061402986828701613ccc565b935050602084013567ffffffffffffffff81111561404a5761404961540a565b5b61405686828701613d24565b925050604084013567ffffffffffffffff8111156140775761407661540a565b5b61408386828701613d24565b9150509250925092565b600080600080608085870312156140a7576140a661540f565b5b60006140b587828801613ccc565b945050602085013567ffffffffffffffff8111156140d6576140d561540a565b5b6140e287828801613d24565b935050604085013567ffffffffffffffff8111156141035761410261540a565b5b61410f87828801613d24565b925050606085013567ffffffffffffffff8111156141305761412f61540a565b5b61413c87828801613d91565b91505092959194509250565b6000806040838503121561415f5761415e61540f565b5b600061416d85828601613ccc565b925050602061417e85828601613d52565b9150509250929050565b6000806040838503121561419f5761419e61540f565b5b60006141ad85828601613ccc565b92505060206141be85828601613ded565b9150509250929050565b6000806000606084860312156141e1576141e061540f565b5b60006141ef86828701613ccc565b935050602061420086828701613ded565b925050604061421186828701613ded565b9150509250925092565b600080600080608085870312156142355761423461540f565b5b600061424387828801613ccc565b945050602061425487828801613ded565b935050604061426587828801613ded565b925050606085013567ffffffffffffffff8111156142865761428561540a565b5b61429287828801613d91565b91505092959194509250565b600080604083850312156142b5576142b461540f565b5b600083013567ffffffffffffffff8111156142d3576142d261540a565b5b6142df85828601613cf6565b925050602083013567ffffffffffffffff811115614300576142ff61540a565b5b61430c85828601613d24565b9150509250929050565b60006020828403121561432c5761432b61540f565b5b600061433a84828501613d67565b91505092915050565b6000602082840312156143595761435861540f565b5b600061436784828501613d7c565b91505092915050565b6000602082840312156143865761438561540f565b5b600082013567ffffffffffffffff8111156143a4576143a361540a565b5b6143b084828501613dbf565b91505092915050565b6000602082840312156143cf576143ce61540f565b5b60006143dd84828501613ded565b91505092915050565b600080604083850312156143fd576143fc61540f565b5b600061440b85828601613ded565b925050602061441c85828601613ccc565b9150509250929050565b600061443283836148d8565b60208301905092915050565b614447816151ca565b82525050565b61445681615149565b82525050565b61446581615137565b82525050565b600061447682614f82565b6144808185614fb0565b935061448b83614f72565b8060005b838110156144bc5781516144a38882614426565b97506144ae83614fa3565b92505060018101905061448f565b5085935050505092915050565b6144d28161515b565b82525050565b60006144e382614f8d565b6144ed8185614fc1565b93506144fd81856020860161520f565b61450681615414565b840191505092915050565b600061451c82614f98565b6145268185614fdd565b935061453681856020860161520f565b61453f81615414565b840191505092915050565b6000614557603483614fdd565b915061456282615432565b604082019050919050565b600061457a602883614fdd565b915061458582615481565b604082019050919050565b600061459d601483614fdd565b91506145a8826154d0565b602082019050919050565b60006145c0602b83614fdd565b91506145cb826154f9565b604082019050919050565b60006145e3602683614fdd565b91506145ee82615548565b604082019050919050565b6000614606602483614fdd565b915061461182615597565b604082019050919050565b6000614629602f83614fdd565b9150614634826155e6565b604082019050919050565b600061464c602983614fdd565b915061465782615635565b604082019050919050565b600061466f601483614fdd565b915061467a82615684565b602082019050919050565b6000614692602383614fdd565b915061469d826156ad565b604082019050919050565b60006146b5602183614fdd565b91506146c0826156fc565b604082019050919050565b60006146d8601083614fdd565b91506146e38261574b565b602082019050919050565b60006146fb602583614fdd565b915061470682615774565b604082019050919050565b600061471e603283614fdd565b9150614729826157c3565b604082019050919050565b6000614741601683614fdd565b915061474c82615812565b602082019050919050565b6000614764602383614fdd565b915061476f8261583b565b604082019050919050565b6000614787602a83614fdd565b91506147928261588a565b604082019050919050565b60006147aa602083614fdd565b91506147b5826158d9565b602082019050919050565b60006147cd602883614fdd565b91506147d882615902565b604082019050919050565b60006147f0603283614fdd565b91506147fb82615951565b604082019050919050565b6000614813600083614fd2565b915061481e826159a0565b600082019050919050565b6000614836602983614fdd565b9150614841826159a3565b604082019050919050565b6000614859602983614fdd565b9150614864826159f2565b604082019050919050565b600061487c602883614fdd565b915061488782615a41565b604082019050919050565b600061489f602183614fdd565b91506148aa82615a90565b604082019050919050565b60006148c2601683614fdd565b91506148cd82615adf565b602082019050919050565b6148e1816151b3565b82525050565b6148f0816151b3565b82525050565b600061490182614806565b9150819050919050565b6000602082019050614920600083018461445c565b92915050565b600060208201905061493b600083018461443e565b92915050565b6000602082019050614956600083018461444d565b92915050565b6000604082019050614971600083018561445c565b61497e602083018461445c565b9392505050565b600060a08201905061499a600083018861445c565b6149a7602083018761445c565b81810360408301526149b9818661446b565b905081810360608301526149cd818561446b565b905081810360808301526149e181846144d8565b90509695505050505050565b600060a082019050614a02600083018861445c565b614a0f602083018761445c565b614a1c60408301866148e7565b614a2960608301856148e7565b8181036080830152614a3b81846144d8565b90509695505050505050565b6000604082019050614a5c600083018561445c565b614a6960208301846148e7565b9392505050565b60006020820190508181036000830152614a8a818461446b565b905092915050565b60006040820190508181036000830152614aac818561446b565b90508181036020830152614ac0818461446b565b90509392505050565b6000602082019050614ade60008301846144c9565b92915050565b60006020820190508181036000830152614afe8184614511565b905092915050565b60006020820190508181036000830152614b1f8161454a565b9050919050565b60006020820190508181036000830152614b3f8161456d565b9050919050565b60006020820190508181036000830152614b5f81614590565b9050919050565b60006020820190508181036000830152614b7f816145b3565b9050919050565b60006020820190508181036000830152614b9f816145d6565b9050919050565b60006020820190508181036000830152614bbf816145f9565b9050919050565b60006020820190508181036000830152614bdf8161461c565b9050919050565b60006020820190508181036000830152614bff8161463f565b9050919050565b60006020820190508181036000830152614c1f81614662565b9050919050565b60006020820190508181036000830152614c3f81614685565b9050919050565b60006020820190508181036000830152614c5f816146a8565b9050919050565b60006020820190508181036000830152614c7f816146cb565b9050919050565b60006020820190508181036000830152614c9f816146ee565b9050919050565b60006020820190508181036000830152614cbf81614711565b9050919050565b60006020820190508181036000830152614cdf81614734565b9050919050565b60006020820190508181036000830152614cff81614757565b9050919050565b60006020820190508181036000830152614d1f8161477a565b9050919050565b60006020820190508181036000830152614d3f8161479d565b9050919050565b60006020820190508181036000830152614d5f816147c0565b9050919050565b60006020820190508181036000830152614d7f816147e3565b9050919050565b60006020820190508181036000830152614d9f81614829565b9050919050565b60006020820190508181036000830152614dbf8161484c565b9050919050565b60006020820190508181036000830152614ddf8161486f565b9050919050565b60006020820190508181036000830152614dff81614892565b9050919050565b60006020820190508181036000830152614e1f816148b5565b9050919050565b6000602082019050614e3b60008301846148e7565b92915050565b6000604082019050614e5660008301856148e7565b614e63602083018461445c565b9392505050565b6000604082019050614e7f60008301856148e7565b614e8c60208301846148e7565b9392505050565b6000614e9d614eae565b9050614ea98282615274565b919050565b6000604051905090565b600067ffffffffffffffff821115614ed357614ed26153aa565b5b602082029050602081019050919050565b600067ffffffffffffffff821115614eff57614efe6153aa565b5b602082029050602081019050919050565b600067ffffffffffffffff821115614f2b57614f2a6153aa565b5b614f3482615414565b9050602081019050919050565b600067ffffffffffffffff821115614f5c57614f5b6153aa565b5b614f6582615414565b9050602081019050919050565b6000819050602082019050919050565b600081519050919050565b600081519050919050565b600081519050919050565b6000602082019050919050565b600082825260208201905092915050565b600082825260208201905092915050565b600081905092915050565b600082825260208201905092915050565b6000614ff9826151b3565b9150615004836151b3565b9250827fffffffffffffffffffffffffffffffffffffffffffffffffffffffffffffffff03821115615039576150386152ee565b5b828201905092915050565b600061504f826151b3565b915061505a836151b3565b92508261506a5761506961531d565b5b828204905092915050565b6000615080826151b3565b915061508b836151b3565b9250817fffffffffffffffffffffffffffffffffffffffffffffffffffffffffffffffff04831182151516156150c4576150c36152ee565b5b828202905092915050565b60006150da826151b3565b91506150e5836151b3565b9250828210156150f8576150f76152ee565b5b828203905092915050565b600061510e826151bd565b9150615119836151bd565b92508282101561512c5761512b6152ee565b5b828203905092915050565b600061514282615193565b9050919050565b600061515482615193565b9050919050565b60008115159050919050565b60007fffffffff0000000000000000000000000000000000000000000000000000000082169050919050565b600073ffffffffffffffffffffffffffffffffffffffff82169050919050565b6000819050919050565b600060ff82169050919050565b60006151d5826151dc565b9050919050565b60006151e7826151ee565b9050919050565b60006151f982615193565b9050919050565b82818337600083830152505050565b60005b8381101561522d578082015181840152602081019050615212565b8381111561523c576000848401525b50505050565b6000600282049050600182168061525a57607f821691505b6020821081141561526e5761526d61534c565b5b50919050565b61527d82615414565b810181811067ffffffffffffffff8211171561529c5761529b6153aa565b5b80604052505050565b60006152b0826151b3565b91507fffffffffffffffffffffffffffffffffffffffffffffffffffffffffffffffff8214156152e3576152e26152ee565b5b600182019050919050565b7f4e487b7100000000000000000000000000000000000000000000000000000000600052601160045260246000fd5b7f4e487b7100000000000000000000000000000000000000000000000000000000600052601260045260246000fd5b7f4e487b7100000000000000000000000000000000000000000000000000000000600052602260045260246000fd5b7f4e487b7100000000000000000000000000000000000000000000000000000000600052603260045260246000fd5b7f4e487b7100000000000000000000000000000000000000000000000000000000600052604160045260246000fd5b600060033d11156153f85760046000803e6153f5600051615425565b90505b90565b600080fd5b600080fd5b600080fd5b600080fd5b600080fd5b6000601f19601f8301169050919050565b60008160e01c9050919050565b7f455243313135353a207472616e7366657220746f206e6f6e204552433131353560008201527f526563656976657220696d706c656d656e746572000000000000000000000000602082015250565b7f455243313135353a204552433131353552656365697665722072656a6563746560008201527f6420746f6b656e73000000000000000000000000000000000000000000000000602082015250565b7f5061757361626c653a206e6f7420706175736564000000000000000000000000600082015250565b7f455243313135353a2062616c616e636520717565727920666f7220746865207a60008201527f65726f2061646472657373000000000000000000000000000000000000000000602082015250565b7f4f776e61626c653a206e6577206f776e657220697320746865207a65726f206160008201527f6464726573730000000000000000000000000000000000000000000000000000602082015250565b7f455243313135353a206275726e20616d6f756e7420657863656564732062616c60008201527f616e636500000000000000000000000000000000000000000000000000000000602082015250565b7f56616c7565206d7573742065786368616e6765206174206c65617374206f6e6560008201527f20547265617375727920556e69742e0000000000000000000000000000000000602082015250565b7f455243313135353a2063616c6c6572206973206e6f74206f776e6572206e6f7260008201527f20617070726f7665640000000000000000000000000000000000000000000000602082015250565b7f4661696c656420746f2073656e64206d6f6e6579000000000000000000000000600082015250565b7f486173206e6f7420656e6f7567682062616c616e636520746f2077697468647260008201527f61772e0000000000000000000000000000000000000000000000000000000000602082015250565b7f4d7573742062652070617573656420746f2073746172742062616e6b7275706360008201527f7900000000000000000000000000000000000000000000000000000000000000602082015250565b7f5061757361626c653a2070617573656400000000000000000000000000000000600082015250565b7f455243313135353a207472616e7366657220746f20746865207a65726f20616460008201527f6472657373000000000000000000000000000000000000000000000000000000602082015250565b7f455243313135353a207472616e736665722063616c6c6572206973206e6f742060008201527f6f776e6572206e6f7220617070726f7665640000000000000000000000000000602082015250565b7f53656e646572206e656564206120726566657265722e00000000000000000000600082015250565b7f455243313135353a206275726e2066726f6d20746865207a65726f206164647260008201527f6573730000000000000000000000000000000000000000000000000000000000602082015250565b7f455243313135353a20696e73756666696369656e742062616c616e636520666f60008201527f72207472616e7366657200000000000000000000000000000000000000000000602082015250565b7f4f776e61626c653a2063616c6c6572206973206e6f7420746865206f776e6572600082015250565b7f455243313135353a206275726e20616d6f756e74206578636565647320746f7460008201527f616c537570706c79000000000000000000000000000000000000000000000000602082015250565b7f56616c7565206d7573742062652067726561646572206f7220657175616c207460008201527f68616e20612063727970746f20556e69742e0000000000000000000000000000602082015250565b50565b7f455243313135353a2073657474696e6720617070726f76616c2073746174757360008201527f20666f722073656c660000000000000000000000000000000000000000000000602082015250565b7f455243313135353a206163636f756e747320616e6420696473206c656e67746860008201527f206d69736d617463680000000000000000000000000000000000000000000000602082015250565b7f455243313135353a2069647320616e6420616d6f756e7473206c656e6774682060008201527f6d69736d61746368000000000000000000000000000000000000000000000000602082015250565b7f455243313135353a206d696e7420746f20746865207a65726f2061646472657360008201527f7300000000000000000000000000000000000000000000000000000000000000602082015250565b7f5365742072656665726572206f6e6c79206f6e63652e00000000000000000000600082015250565b600060443d1015615b1857615b9b565b615b20614eae565b60043d036004823e80513d602482011167ffffffffffffffff82111715615b48575050615b9b565b808201805167ffffffffffffffff811115615b665750505050615b9b565b80602083010160043d038501811115615b83575050505050615b9b565b615b9282602001850186615274565b82955050505050505b90565b615ba781615137565b8114615bb257600080fd5b50565b615bbe81615149565b8114615bc957600080fd5b50565b615bd58161515b565b8114615be057600080fd5b50565b615bec81615167565b8114615bf757600080fd5b50565b615c03816151b3565b8114615c0e57600080fd5b5056fea2646970667358221220f8bbcb1f3115be8e23a36463155e0e7ab708f5cc6ffe95a0f5841393be9c893664736f6c63430008070033",
  "immutableReferences": {},
  "source": "// SPDX-License-Identifier: GPL-3.0\npragma solidity ^0.8.7;\n\nimport { ERC1155 } from  \"@openzeppelin/contracts/token/ERC1155/ERC1155.sol\";\nimport { Ownable } from \"@openzeppelin/contracts/access/Ownable.sol\";\nimport { Pausable } from  \"@openzeppelin/contracts/security/Pausable.sol\";\nimport { ERC1155Burnable } from  \"@openzeppelin/contracts/token/ERC1155/extensions/ERC1155Burnable.sol\";\nimport { ERC1155Supply } from \"@openzeppelin/contracts/token/ERC1155/extensions/ERC1155Supply.sol\";\n\n/// @custom:security-contact german.lugo@bitnibs.com\ncontract Treasury is ERC1155, Ownable, Pausable, ERC1155Burnable, ERC1155Supply {\n\n    uint public treasuryBalance;\n    address payable public treasuryBox;\n\n    mapping ( address => uint256 ) public treasuryBalanceOf;\n    mapping ( address => address ) public referer;\n    uint public treasuryCoinPrice;\n    uint public refererRegister;\n\n    uint constant multiplier = 10**18;\n\n    event SentFee(bytes _data);\n    event Withdrawal(uint256 _value, address _address);\n    event SettedReferer(address _refered, address _refering);\n    event OutSourcing(address _sender, uint256 _value);\n    event Assignment(address _sender, uint256 _value);\n    event Bankruptcy(address _newOwner);\n\n    constructor() payable ERC1155(\"\") {\n        treasuryBox = payable(msg.sender);\n        referer[msg.sender] = address(this);\n        treasuryCoinPrice = multiplier;\n    }\n\n    function setTreasuryEuroPrice (uint _polygonPrice) public onlyOwner {\n        treasuryCoinPrice = _polygonPrice;\n    }\n\n    function getBalance() public view returns(uint) {\n        return address(this).balance;\n    }\n\n    function withdrawMoney() public onlyOwner {\n        address payable to = payable(msg.sender);\n        to.transfer(getBalance());\n    }\n\n    function setReferer (address _referring, address _referred) public onlyOwner {\n        require(referer[_referred] == address(0), \"Set referer only once.\");\n        referer[_referred] = _referring;\n        emit SettedReferer(_referring, _referred);\n    }\n\n    function outSourcing() public payable {\n        require(msg.value / treasuryCoinPrice >= 1, \"Value must exchange at least one Treasury Unit.\");\n        (bool success, ) = treasuryBox.call{value: msg.value }(\"\");\n        treasuryBalanceOf[msg.sender] += msg.value * treasuryCoinPrice / multiplier ;\n        treasuryBalance += msg.value * treasuryCoinPrice / multiplier;\n        emit OutSourcing(msg.sender, msg.value * treasuryCoinPrice / multiplier );\n        require(success, \"Failed to send money\");\n    }\n    \n    function assignment() public payable {\n        require(referer[msg.sender] != address(0), \"Sender need a referer.\");\n        require(msg.value >= 10 ** 18, \"Value must be greader or equal than a crypto Unit.\");\n        (bool success, ) = treasuryBox.call{value: msg.value }(\"\");\n        treasuryBalance += msg.value * treasuryCoinPrice / multiplier / 90;\n        uint8 indx = 10;\n        uint256 fee = msg.value * treasuryCoinPrice / multiplier / 100;\n        address ref = msg.sender;\n        while(indx > 0) {\n            if(referer[ref] != address(0)) {\n                treasuryBalanceOf[referer[ref]] += fee;\n                treasuryBalance += fee;\n            }\n            ref = referer[ref];\n            indx -= 1;\n        }\n        emit Assignment(msg.sender, msg.value);\n        require(success, \"Failed to send money\");\n    }\n\n    function withdrawFrom(uint256 _value, address _address) public onlyOwner {\n        require(treasuryBalanceOf[_address] - _value >= 0 , \"Has not enough balance to withdraw.\");\n        treasuryBalanceOf[_address] -= _value;\n        treasuryBalance -= _value;\n        emit Withdrawal(_value, _address);\n    }\n\n    function bankruptcy( ) public onlyOwner {\n        bool a = paused();\n        require(a, \"Must be paused to start bankrupcy\");\n        // TODO: return assets to creditors;\n        setTreasuryBox(payable(address(0)));\n        emit Bankruptcy(treasuryBox);\n    }\n\n    function setTreasuryBox(address payable _newTreasuryBox) public onlyOwner {\n        treasuryBox = _newTreasuryBox;\n    }\n\n    function setURI(string memory newuri) public onlyOwner {\n        _setURI(newuri);\n    }\n\n    function pause() public onlyOwner {\n        _pause();\n    }\n\n    function unpause() public onlyOwner {\n        _unpause();\n    }\n\n    function mint(address account, uint256 id, uint256 amount, bytes memory data)\n        public\n        onlyOwner\n    {\n        _mint(account, id, amount, data);\n    }\n\n    function mintBatch(address to, uint256[] memory ids, uint256[] memory amounts, bytes memory data)\n        public\n        onlyOwner\n    {\n        _mintBatch(to, ids, amounts, data);\n    }\n\n    function _beforeTokenTransfer(address operator, address from, address to, uint256[] memory ids, uint256[] memory amounts, bytes memory data)\n        internal\n        whenNotPaused\n        override(ERC1155, ERC1155Supply)\n    {\n        super._beforeTokenTransfer(operator, from, to, ids, amounts, data);\n    }\n}",
  "sourcePath": "/Volumes/ChocoFlash/Work/tBotExperiment/contracts/Treasury.sol",
  "compiler": {
    "name": "solc",
    "version": "0.8.7+commit.e28d00a7.Emscripten.clang"
  },
  "schemaVersion": "3.4.4",
  "updatedAt": "2022-09-09T16:02:06.465Z",
  "networkType": "ethereum",
  "devdoc": {
    "custom:security-contact": "german.lugo@bitnibs.com",
    "kind": "dev",
    "methods": {
      "balanceOf(address,uint256)": {
        "details": "See {IERC1155-balanceOf}. Requirements: - `account` cannot be the zero address."
      },
      "balanceOfBatch(address[],uint256[])": {
        "details": "See {IERC1155-balanceOfBatch}. Requirements: - `accounts` and `ids` must have the same length."
      },
      "exists(uint256)": {
        "details": "Indicates whether any token exist with a given id, or not."
      },
      "isApprovedForAll(address,address)": {
        "details": "See {IERC1155-isApprovedForAll}."
      },
      "owner()": {
        "details": "Returns the address of the current owner."
      },
      "paused()": {
        "details": "Returns true if the contract is paused, and false otherwise."
      },
      "renounceOwnership()": {
        "details": "Leaves the contract without owner. It will not be possible to call `onlyOwner` functions anymore. Can only be called by the current owner. NOTE: Renouncing ownership will leave the contract without an owner, thereby removing any functionality that is only available to the owner."
      },
      "safeBatchTransferFrom(address,address,uint256[],uint256[],bytes)": {
        "details": "See {IERC1155-safeBatchTransferFrom}."
      },
      "safeTransferFrom(address,address,uint256,uint256,bytes)": {
        "details": "See {IERC1155-safeTransferFrom}."
      },
      "setApprovalForAll(address,bool)": {
        "details": "See {IERC1155-setApprovalForAll}."
      },
      "supportsInterface(bytes4)": {
        "details": "See {IERC165-supportsInterface}."
      },
      "totalSupply(uint256)": {
        "details": "Total amount of tokens in with a given id."
      },
      "transferOwnership(address)": {
        "details": "Transfers ownership of the contract to a new account (`newOwner`). Can only be called by the current owner."
      },
      "uri(uint256)": {
        "details": "See {IERC1155MetadataURI-uri}. This implementation returns the same URI for *all* token types. It relies on the token type ID substitution mechanism https://eips.ethereum.org/EIPS/eip-1155#metadata[defined in the EIP]. Clients calling this function must replace the `\\{id\\}` substring with the actual token type ID."
      }
    },
    "version": 1
  },
  "userdoc": {
    "kind": "user",
    "methods": {},
    "version": 1
  }
}