{
  "contractName": "Treasury",
  "abi": [
    {
      "inputs": [],
      "stateMutability": "payable",
      "type": "constructor",
      "payable": true
    },
    {
      "anonymous": false,
      "inputs": [
        {
          "indexed": true,
          "internalType": "address",
          "name": "account",
          "type": "address"
        },
        {
          "indexed": true,
          "internalType": "address",
          "name": "operator",
          "type": "address"
        },
        {
          "indexed": false,
          "internalType": "bool",
          "name": "approved",
          "type": "bool"
        }
      ],
      "name": "ApprovalForAll",
      "type": "event"
    },
    {
      "anonymous": false,
      "inputs": [
        {
          "indexed": false,
          "internalType": "address",
          "name": "_sender",
          "type": "address"
        },
        {
          "indexed": false,
          "internalType": "uint256",
          "name": "_value",
          "type": "uint256"
        }
      ],
      "name": "Assignment",
      "type": "event"
    },
    {
      "anonymous": false,
      "inputs": [
        {
          "indexed": false,
          "internalType": "address",
          "name": "_newOwner",
          "type": "address"
        }
      ],
      "name": "Bankruptcy",
      "type": "event"
    },
    {
      "anonymous": false,
      "inputs": [
        {
          "indexed": false,
          "internalType": "address",
          "name": "_sender",
          "type": "address"
        },
        {
          "indexed": false,
          "internalType": "uint256",
          "name": "_value",
          "type": "uint256"
        }
      ],
      "name": "OutSourcing",
      "type": "event"
    },
    {
      "anonymous": false,
      "inputs": [
        {
          "indexed": true,
          "internalType": "address",
          "name": "previousOwner",
          "type": "address"
        },
        {
          "indexed": true,
          "internalType": "address",
          "name": "newOwner",
          "type": "address"
        }
      ],
      "name": "OwnershipTransferred",
      "type": "event"
    },
    {
      "anonymous": false,
      "inputs": [
        {
          "indexed": false,
          "internalType": "address",
          "name": "account",
          "type": "address"
        }
      ],
      "name": "Paused",
      "type": "event"
    },
    {
      "anonymous": false,
      "inputs": [
        {
          "indexed": false,
          "internalType": "uint256",
          "name": "amount",
          "type": "uint256"
        }
      ],
      "name": "ReceivedEth",
      "type": "event"
    },
    {
      "anonymous": false,
      "inputs": [
        {
          "indexed": false,
          "internalType": "uint256",
          "name": "_value",
          "type": "uint256"
        }
      ],
      "name": "SendToExchange",
      "type": "event"
    },
    {
      "anonymous": false,
      "inputs": [
        {
          "indexed": false,
          "internalType": "bytes",
          "name": "_data",
          "type": "bytes"
        }
      ],
      "name": "SentFee",
      "type": "event"
    },
    {
      "anonymous": false,
      "inputs": [
        {
          "indexed": false,
          "internalType": "address",
          "name": "_address",
          "type": "address"
        }
      ],
      "name": "SetExchangeChannel",
      "type": "event"
    },
    {
      "anonymous": false,
      "inputs": [
        {
          "indexed": false,
          "internalType": "address",
          "name": "_refered",
          "type": "address"
        },
        {
          "indexed": false,
          "internalType": "address",
          "name": "_refering",
          "type": "address"
        }
      ],
      "name": "SettedReferer",
      "type": "event"
    },
    {
      "anonymous": false,
      "inputs": [
        {
          "indexed": true,
          "internalType": "address",
          "name": "operator",
          "type": "address"
        },
        {
          "indexed": true,
          "internalType": "address",
          "name": "from",
          "type": "address"
        },
        {
          "indexed": true,
          "internalType": "address",
          "name": "to",
          "type": "address"
        },
        {
          "indexed": false,
          "internalType": "uint256[]",
          "name": "ids",
          "type": "uint256[]"
        },
        {
          "indexed": false,
          "internalType": "uint256[]",
          "name": "values",
          "type": "uint256[]"
        }
      ],
      "name": "TransferBatch",
      "type": "event"
    },
    {
      "anonymous": false,
      "inputs": [
        {
          "indexed": true,
          "internalType": "address",
          "name": "operator",
          "type": "address"
        },
        {
          "indexed": true,
          "internalType": "address",
          "name": "from",
          "type": "address"
        },
        {
          "indexed": true,
          "internalType": "address",
          "name": "to",
          "type": "address"
        },
        {
          "indexed": false,
          "internalType": "uint256",
          "name": "id",
          "type": "uint256"
        },
        {
          "indexed": false,
          "internalType": "uint256",
          "name": "value",
          "type": "uint256"
        }
      ],
      "name": "TransferSingle",
      "type": "event"
    },
    {
      "anonymous": false,
      "inputs": [
        {
          "indexed": false,
          "internalType": "string",
          "name": "value",
          "type": "string"
        },
        {
          "indexed": true,
          "internalType": "uint256",
          "name": "id",
          "type": "uint256"
        }
      ],
      "name": "URI",
      "type": "event"
    },
    {
      "anonymous": false,
      "inputs": [
        {
          "indexed": false,
          "internalType": "address",
          "name": "account",
          "type": "address"
        }
      ],
      "name": "Unpaused",
      "type": "event"
    },
    {
      "anonymous": false,
      "inputs": [
        {
          "indexed": false,
          "internalType": "uint256",
          "name": "_value",
          "type": "uint256"
        },
        {
          "indexed": false,
          "internalType": "address",
          "name": "_address",
          "type": "address"
        }
      ],
      "name": "Withdrawal",
      "type": "event"
    },
    {
      "stateMutability": "payable",
      "type": "fallback",
      "payable": true
    },
    {
      "inputs": [
        {
          "internalType": "address",
          "name": "account",
          "type": "address"
        },
        {
          "internalType": "uint256",
          "name": "id",
          "type": "uint256"
        }
      ],
      "name": "balanceOf",
      "outputs": [
        {
          "internalType": "uint256",
          "name": "",
          "type": "uint256"
        }
      ],
      "stateMutability": "view",
      "type": "function",
      "constant": true
    },
    {
      "inputs": [
        {
          "internalType": "address[]",
          "name": "accounts",
          "type": "address[]"
        },
        {
          "internalType": "uint256[]",
          "name": "ids",
          "type": "uint256[]"
        }
      ],
      "name": "balanceOfBatch",
      "outputs": [
        {
          "internalType": "uint256[]",
          "name": "",
          "type": "uint256[]"
        }
      ],
      "stateMutability": "view",
      "type": "function",
      "constant": true
    },
    {
      "inputs": [
        {
          "internalType": "address",
          "name": "account",
          "type": "address"
        },
        {
          "internalType": "uint256",
          "name": "id",
          "type": "uint256"
        },
        {
          "internalType": "uint256",
          "name": "value",
          "type": "uint256"
        }
      ],
      "name": "burn",
      "outputs": [],
      "stateMutability": "nonpayable",
      "type": "function"
    },
    {
      "inputs": [
        {
          "internalType": "address",
          "name": "account",
          "type": "address"
        },
        {
          "internalType": "uint256[]",
          "name": "ids",
          "type": "uint256[]"
        },
        {
          "internalType": "uint256[]",
          "name": "values",
          "type": "uint256[]"
        }
      ],
      "name": "burnBatch",
      "outputs": [],
      "stateMutability": "nonpayable",
      "type": "function"
    },
    {
      "inputs": [],
      "name": "exchangeChannel",
      "outputs": [
        {
          "internalType": "address payable",
          "name": "",
          "type": "address"
        }
      ],
      "stateMutability": "view",
      "type": "function",
      "constant": true
    },
    {
      "inputs": [
        {
          "internalType": "uint256",
          "name": "id",
          "type": "uint256"
        }
      ],
      "name": "exists",
      "outputs": [
        {
          "internalType": "bool",
          "name": "",
          "type": "bool"
        }
      ],
      "stateMutability": "view",
      "type": "function",
      "constant": true
    },
    {
      "inputs": [
        {
          "internalType": "address",
          "name": "account",
          "type": "address"
        },
        {
          "internalType": "address",
          "name": "operator",
          "type": "address"
        }
      ],
      "name": "isApprovedForAll",
      "outputs": [
        {
          "internalType": "bool",
          "name": "",
          "type": "bool"
        }
      ],
      "stateMutability": "view",
      "type": "function",
      "constant": true
    },
    {
      "inputs": [],
      "name": "owner",
      "outputs": [
        {
          "internalType": "address",
          "name": "",
          "type": "address"
        }
      ],
      "stateMutability": "view",
      "type": "function",
      "constant": true
    },
    {
      "inputs": [],
      "name": "paused",
      "outputs": [
        {
          "internalType": "bool",
          "name": "",
          "type": "bool"
        }
      ],
      "stateMutability": "view",
      "type": "function",
      "constant": true
    },
    {
      "inputs": [
        {
          "internalType": "address",
          "name": "",
          "type": "address"
        }
      ],
      "name": "referer",
      "outputs": [
        {
          "internalType": "address",
          "name": "",
          "type": "address"
        }
      ],
      "stateMutability": "view",
      "type": "function",
      "constant": true
    },
    {
      "inputs": [],
      "name": "refererRegister",
      "outputs": [
        {
          "internalType": "uint256",
          "name": "",
          "type": "uint256"
        }
      ],
      "stateMutability": "view",
      "type": "function",
      "constant": true
    },
    {
      "inputs": [],
      "name": "renounceOwnership",
      "outputs": [],
      "stateMutability": "nonpayable",
      "type": "function"
    },
    {
      "inputs": [
        {
          "internalType": "address",
          "name": "from",
          "type": "address"
        },
        {
          "internalType": "address",
          "name": "to",
          "type": "address"
        },
        {
          "internalType": "uint256[]",
          "name": "ids",
          "type": "uint256[]"
        },
        {
          "internalType": "uint256[]",
          "name": "amounts",
          "type": "uint256[]"
        },
        {
          "internalType": "bytes",
          "name": "data",
          "type": "bytes"
        }
      ],
      "name": "safeBatchTransferFrom",
      "outputs": [],
      "stateMutability": "nonpayable",
      "type": "function"
    },
    {
      "inputs": [
        {
          "internalType": "address",
          "name": "from",
          "type": "address"
        },
        {
          "internalType": "address",
          "name": "to",
          "type": "address"
        },
        {
          "internalType": "uint256",
          "name": "id",
          "type": "uint256"
        },
        {
          "internalType": "uint256",
          "name": "amount",
          "type": "uint256"
        },
        {
          "internalType": "bytes",
          "name": "data",
          "type": "bytes"
        }
      ],
      "name": "safeTransferFrom",
      "outputs": [],
      "stateMutability": "nonpayable",
      "type": "function"
    },
    {
      "inputs": [
        {
          "internalType": "address",
          "name": "operator",
          "type": "address"
        },
        {
          "internalType": "bool",
          "name": "approved",
          "type": "bool"
        }
      ],
      "name": "setApprovalForAll",
      "outputs": [],
      "stateMutability": "nonpayable",
      "type": "function"
    },
    {
      "inputs": [
        {
          "internalType": "bytes4",
          "name": "interfaceId",
          "type": "bytes4"
        }
      ],
      "name": "supportsInterface",
      "outputs": [
        {
          "internalType": "bool",
          "name": "",
          "type": "bool"
        }
      ],
      "stateMutability": "view",
      "type": "function",
      "constant": true
    },
    {
      "inputs": [
        {
          "internalType": "uint256",
          "name": "id",
          "type": "uint256"
        }
      ],
      "name": "totalSupply",
      "outputs": [
        {
          "internalType": "uint256",
          "name": "",
          "type": "uint256"
        }
      ],
      "stateMutability": "view",
      "type": "function",
      "constant": true
    },
    {
      "inputs": [
        {
          "internalType": "address",
          "name": "newOwner",
          "type": "address"
        }
      ],
      "name": "transferOwnership",
      "outputs": [],
      "stateMutability": "nonpayable",
      "type": "function"
    },
    {
      "inputs": [],
      "name": "treasuryBalance",
      "outputs": [
        {
          "internalType": "uint256",
          "name": "",
          "type": "uint256"
        }
      ],
      "stateMutability": "view",
      "type": "function",
      "constant": true
    },
    {
      "inputs": [
        {
          "internalType": "address",
          "name": "",
          "type": "address"
        }
      ],
      "name": "treasuryBalanceOf",
      "outputs": [
        {
          "internalType": "uint256",
          "name": "",
          "type": "uint256"
        }
      ],
      "stateMutability": "view",
      "type": "function",
      "constant": true
    },
    {
      "inputs": [],
      "name": "treasuryBox",
      "outputs": [
        {
          "internalType": "address payable",
          "name": "",
          "type": "address"
        }
      ],
      "stateMutability": "view",
      "type": "function",
      "constant": true
    },
    {
      "inputs": [],
      "name": "treasuryCoinPrice",
      "outputs": [
        {
          "internalType": "uint256",
          "name": "",
          "type": "uint256"
        }
      ],
      "stateMutability": "view",
      "type": "function",
      "constant": true
    },
    {
      "inputs": [
        {
          "internalType": "uint256",
          "name": "",
          "type": "uint256"
        }
      ],
      "name": "uri",
      "outputs": [
        {
          "internalType": "string",
          "name": "",
          "type": "string"
        }
      ],
      "stateMutability": "view",
      "type": "function",
      "constant": true
    },
    {
      "stateMutability": "payable",
      "type": "receive",
      "payable": true
    },
    {
      "inputs": [
        {
          "internalType": "uint256",
          "name": "_polygonPrice",
          "type": "uint256"
        }
      ],
      "name": "setTreasuryEuroPrice",
      "outputs": [],
      "stateMutability": "nonpayable",
      "type": "function"
    },
    {
      "inputs": [],
      "name": "getBalance",
      "outputs": [
        {
          "internalType": "uint256",
          "name": "",
          "type": "uint256"
        }
      ],
      "stateMutability": "view",
      "type": "function",
      "constant": true
    },
    {
      "inputs": [
        {
          "internalType": "address",
          "name": "_address",
          "type": "address"
        }
      ],
      "name": "setExchangeAddress",
      "outputs": [],
      "stateMutability": "nonpayable",
      "type": "function"
    },
    {
      "inputs": [
        {
          "internalType": "address",
          "name": "_referring",
          "type": "address"
        },
        {
          "internalType": "address",
          "name": "_referred",
          "type": "address"
        }
      ],
      "name": "setReferer",
      "outputs": [],
      "stateMutability": "nonpayable",
      "type": "function"
    },
    {
      "inputs": [],
      "name": "outSourcing",
      "outputs": [],
      "stateMutability": "payable",
      "type": "function",
      "payable": true
    },
    {
      "inputs": [],
      "name": "assignment",
      "outputs": [],
      "stateMutability": "payable",
      "type": "function",
      "payable": true
    },
    {
      "inputs": [
        {
          "internalType": "uint256",
          "name": "_value",
          "type": "uint256"
        },
        {
          "internalType": "address",
          "name": "_address",
          "type": "address"
        }
      ],
      "name": "withdrawFrom",
      "outputs": [],
      "stateMutability": "nonpayable",
      "type": "function"
    },
    {
      "inputs": [],
      "name": "bankruptcy",
      "outputs": [],
      "stateMutability": "nonpayable",
      "type": "function"
    },
    {
      "inputs": [
        {
          "internalType": "address payable",
          "name": "_newTreasuryBox",
          "type": "address"
        }
      ],
      "name": "setTreasuryBox",
      "outputs": [],
      "stateMutability": "nonpayable",
      "type": "function"
    },
    {
      "inputs": [
        {
          "internalType": "string",
          "name": "newuri",
          "type": "string"
        }
      ],
      "name": "setURI",
      "outputs": [],
      "stateMutability": "nonpayable",
      "type": "function"
    },
    {
      "inputs": [],
      "name": "pause",
      "outputs": [],
      "stateMutability": "nonpayable",
      "type": "function"
    },
    {
      "inputs": [],
      "name": "unpause",
      "outputs": [],
      "stateMutability": "nonpayable",
      "type": "function"
    },
    {
      "inputs": [
        {
          "internalType": "address",
          "name": "account",
          "type": "address"
        },
        {
          "internalType": "uint256",
          "name": "id",
          "type": "uint256"
        },
        {
          "internalType": "uint256",
          "name": "amount",
          "type": "uint256"
        },
        {
          "internalType": "bytes",
          "name": "data",
          "type": "bytes"
        }
      ],
      "name": "mint",
      "outputs": [],
      "stateMutability": "nonpayable",
      "type": "function"
    },
    {
      "inputs": [
        {
          "internalType": "address",
          "name": "to",
          "type": "address"
        },
        {
          "internalType": "uint256[]",
          "name": "ids",
          "type": "uint256[]"
        },
        {
          "internalType": "uint256[]",
          "name": "amounts",
          "type": "uint256[]"
        },
        {
          "internalType": "bytes",
          "name": "data",
          "type": "bytes"
        }
      ],
      "name": "mintBatch",
      "outputs": [],
      "stateMutability": "nonpayable",
      "type": "function"
    }
  ],
  "bytecode": "0x60806040526040518060200160405280600081525062000025816200013560201b60201c565b50620000466200003a6200015160201b60201c565b6200015960201b60201c565b6000600360146101000a81548160ff02191690831515021790555033600660006101000a81548173ffffffffffffffffffffffffffffffffffffffff021916908373ffffffffffffffffffffffffffffffffffffffff16021790555030600960003373ffffffffffffffffffffffffffffffffffffffff1673ffffffffffffffffffffffffffffffffffffffff16815260200190815260200160002060006101000a81548173ffffffffffffffffffffffffffffffffffffffff021916908373ffffffffffffffffffffffffffffffffffffffff160217905550670de0b6b3a7640000600a8190555062000334565b80600290805190602001906200014d9291906200021f565b5050565b600033905090565b6000600360009054906101000a900473ffffffffffffffffffffffffffffffffffffffff16905081600360006101000a81548173ffffffffffffffffffffffffffffffffffffffff021916908373ffffffffffffffffffffffffffffffffffffffff1602179055508173ffffffffffffffffffffffffffffffffffffffff168173ffffffffffffffffffffffffffffffffffffffff167f8be0079c531659141344cd1fd0a4f28419497f9722a3daafe3b4186f6b6457e060405160405180910390a35050565b8280546200022d90620002cf565b90600052602060002090601f0160209004810192826200025157600085556200029d565b82601f106200026c57805160ff19168380011785556200029d565b828001600101855582156200029d579182015b828111156200029c5782518255916020019190600101906200027f565b5b509050620002ac9190620002b0565b5090565b5b80821115620002cb576000816000905550600101620002b1565b5090565b60006002820490506001821680620002e857607f821691505b60208210811415620002ff57620002fe62000305565b5b50919050565b7f4e487b7100000000000000000000000000000000000000000000000000000000600052602260045260246000fd5b615ec680620003446000396000f3fe60806040526004361061021d5760003560e01c80637dd08c6111610123578063bcbc2286116100ab578063f2fde38b1161006f578063f2fde38b1461077c578063f4a8b197146107a5578063f5298aca146107e2578063f63eedfd1461080b578063fcad422e146108365761022c565b8063bcbc228614610687578063bd85b039146106b0578063d082ea8c146106ed578063e985e9c514610716578063f242432a146107535761022c565b8063901a3f3a116100f2578063901a3f3a146105d7578063a22cb46514610600578063a5274cf414610629578063acf4f11314610654578063b1cbf8881461065e5761022c565b80637dd08c61146105415780638456cb591461056c5780638c2c54fa146105835780638da5cb5b146105ac5761022c565b8063313dab20116101a65780635c975abb116101755780635c975abb146104a35780636b20c454146104ce578063715018a6146104f757806371ca2ecf1461050e578063731133e9146105185761022c565b8063313dab20146103e75780633f4ba83a146104125780634e1273f4146104295780634f558e79146104665761022c565b80630e89341c116101ed5780630e89341c1461031657806312065fe01461035357806312de9c8a1461037e5780631f7fdffa146103955780632eb2c2d6146103be5761022c565b8062fdd58e1461023657806301ffc9a71461027357806302fe5305146102b05780630ad067a4146102d95761022c565b3661022c5761022a610861565b005b610234610861565b005b34801561024257600080fd5b5061025d60048036038101906102589190614375565b6109a3565b60405161026a9190615056565b60405180910390f35b34801561027f57600080fd5b5061029a60048036038101906102959190614503565b610a6c565b6040516102a79190614cd9565b60405180910390f35b3480156102bc57600080fd5b506102d760048036038101906102d2919061455d565b610b4e565b005b3480156102e557600080fd5b5061030060048036038101906102fb9190613fef565b610bd6565b60405161030d9190615056565b60405180910390f35b34801561032257600080fd5b5061033d600480360381019061033891906145a6565b610bee565b60405161034a9190614cf4565b60405180910390f35b34801561035f57600080fd5b50610368610c82565b6040516103759190615056565b60405180910390f35b34801561038a57600080fd5b50610393610c8a565b005b3480156103a157600080fd5b506103bc60048036038101906103b7919061427a565b610db8565b005b3480156103ca57600080fd5b506103e560048036038101906103e09190614089565b610e46565b005b3480156103f357600080fd5b506103fc610ee7565b6040516104099190615056565b60405180910390f35b34801561041e57600080fd5b50610427610eed565b005b34801561043557600080fd5b50610450600480360381019061044b919061448b565b610f73565b60405161045d9190614c80565b60405180910390f35b34801561047257600080fd5b5061048d600480360381019061048891906145a6565b61108c565b60405161049a9190614cd9565b60405180910390f35b3480156104af57600080fd5b506104b86110a0565b6040516104c59190614cd9565b60405180910390f35b3480156104da57600080fd5b506104f560048036038101906104f091906141ef565b6110b7565b005b34801561050357600080fd5b5061050c611154565b005b6105166111dc565b005b34801561052457600080fd5b5061053f600480360381019061053a9190614408565b611669565b005b34801561054d57600080fd5b506105566116f7565b6040516105639190615056565b60405180910390f35b34801561057857600080fd5b506105816116fd565b005b34801561058f57600080fd5b506105aa60048036038101906105a59190614049565b611783565b005b3480156105b857600080fd5b506105c1611988565b6040516105ce9190614b1b565b60405180910390f35b3480156105e357600080fd5b506105fe60048036038101906105f991906145a6565b6119b2565b005b34801561060c57600080fd5b5061062760048036038101906106229190614335565b611a38565b005b34801561063557600080fd5b5061063e611a4e565b60405161064b9190614b51565b60405180910390f35b61065c611a74565b005b34801561066a57600080fd5b50610685600480360381019061068091906145d3565b611c9e565b005b34801561069357600080fd5b506106ae60048036038101906106a9919061401c565b611e54565b005b3480156106bc57600080fd5b506106d760048036038101906106d291906145a6565b611f14565b6040516106e49190615056565b60405180910390f35b3480156106f957600080fd5b50610714600480360381019061070f9190613fef565b611f31565b005b34801561072257600080fd5b5061073d60048036038101906107389190614049565b612028565b60405161074a9190614cd9565b60405180910390f35b34801561075f57600080fd5b5061077a60048036038101906107759190614158565b6120bc565b005b34801561078857600080fd5b506107a3600480360381019061079e9190613fef565b61215d565b005b3480156107b157600080fd5b506107cc60048036038101906107c79190613fef565b612255565b6040516107d99190614b1b565b60405180910390f35b3480156107ee57600080fd5b50610809600480360381019061080491906143b5565b612288565b005b34801561081757600080fd5b50610820612325565b60405161082d9190615056565b60405180910390f35b34801561084257600080fd5b5061084b61232b565b6040516108589190614b51565b60405180910390f35b600073ffffffffffffffffffffffffffffffffffffffff16600760009054906101000a900473ffffffffffffffffffffffffffffffffffffffff1673ffffffffffffffffffffffffffffffffffffffff1614156108f3576040517f08c379a00000000000000000000000000000000000000000000000000000000081526004016108ea90614ef6565b60405180910390fd5b7f92effcf9b6340bf800e1999ef492259032abd3417e0d9dbd065d914668fe90c961091c610c82565b6040516109299190615056565b60405180910390a1600760009054906101000a900473ffffffffffffffffffffffffffffffffffffffff1673ffffffffffffffffffffffffffffffffffffffff166108fc610975610c82565b9081150290604051600060405180830381858888f193505050501580156109a0573d6000803e3d6000fd5b50565b60008073ffffffffffffffffffffffffffffffffffffffff168373ffffffffffffffffffffffffffffffffffffffff161415610a14576040517f08c379a0000000000000000000000000000000000000000000000000000000008152600401610a0b90614d76565b60405180910390fd5b60008083815260200190815260200160002060008473ffffffffffffffffffffffffffffffffffffffff1673ffffffffffffffffffffffffffffffffffffffff16815260200190815260200160002054905092915050565b60007fd9b67a26000000000000000000000000000000000000000000000000000000007bffffffffffffffffffffffffffffffffffffffffffffffffffffffff1916827bffffffffffffffffffffffffffffffffffffffffffffffffffffffff19161480610b3757507f0e89341c000000000000000000000000000000000000000000000000000000007bffffffffffffffffffffffffffffffffffffffffffffffffffffffff1916827bffffffffffffffffffffffffffffffffffffffffffffffffffffffff1916145b80610b475750610b4682612351565b5b9050919050565b610b566123bb565b73ffffffffffffffffffffffffffffffffffffffff16610b74611988565b73ffffffffffffffffffffffffffffffffffffffff1614610bca576040517f08c379a0000000000000000000000000000000000000000000000000000000008152600401610bc190614f56565b60405180910390fd5b610bd3816123c3565b50565b60086020528060005260406000206000915090505481565b606060028054610bfd90615472565b80601f0160208091040260200160405190810160405280929190818152602001828054610c2990615472565b8015610c765780601f10610c4b57610100808354040283529160200191610c76565b820191906000526020600020905b815481529060010190602001808311610c5957829003601f168201915b50505050509050919050565b600047905090565b610c926123bb565b73ffffffffffffffffffffffffffffffffffffffff16610cb0611988565b73ffffffffffffffffffffffffffffffffffffffff1614610d06576040517f08c379a0000000000000000000000000000000000000000000000000000000008152600401610cfd90614f56565b60405180910390fd5b6000610d106110a0565b905080610d52576040517f08c379a0000000000000000000000000000000000000000000000000000000008152600401610d4990614e56565b60405180910390fd5b610d5c6000611e54565b7fea57c6c4e9fd9772a6debb5b8582368cdecd8ebb0b370f179e49661d76fa9d63600660009054906101000a900473ffffffffffffffffffffffffffffffffffffffff16604051610dad9190614b36565b60405180910390a150565b610dc06123bb565b73ffffffffffffffffffffffffffffffffffffffff16610dde611988565b73ffffffffffffffffffffffffffffffffffffffff1614610e34576040517f08c379a0000000000000000000000000000000000000000000000000000000008152600401610e2b90614f56565b60405180910390fd5b610e40848484846123dd565b50505050565b610e4e6123bb565b73ffffffffffffffffffffffffffffffffffffffff168573ffffffffffffffffffffffffffffffffffffffff161480610e945750610e9385610e8e6123bb565b612028565b5b610ed3576040517f08c379a0000000000000000000000000000000000000000000000000000000008152600401610eca90614eb6565b60405180910390fd5b610ee0858585858561260a565b5050505050565b60055481565b610ef56123bb565b73ffffffffffffffffffffffffffffffffffffffff16610f13611988565b73ffffffffffffffffffffffffffffffffffffffff1614610f69576040517f08c379a0000000000000000000000000000000000000000000000000000000008152600401610f6090614f56565b60405180910390fd5b610f7161292c565b565b60608151835114610fb9576040517f08c379a0000000000000000000000000000000000000000000000000000000008152600401610fb090614fd6565b60405180910390fd5b6000835167ffffffffffffffff811115610fd657610fd56155da565b5b6040519080825280602002602001820160405280156110045781602001602082028036833780820191505090505b50905060005b845181101561108157611051858281518110611029576110286155ab565b5b6020026020010151858381518110611044576110436155ab565b5b60200260200101516109a3565b828281518110611064576110636155ab565b5b6020026020010181815250508061107a906154d5565b905061100a565b508091505092915050565b60008061109883611f14565b119050919050565b6000600360149054906101000a900460ff16905090565b6110bf6123bb565b73ffffffffffffffffffffffffffffffffffffffff168373ffffffffffffffffffffffffffffffffffffffff1614806111055750611104836110ff6123bb565b612028565b5b611144576040517f08c379a000000000000000000000000000000000000000000000000000000000815260040161113b90614df6565b60405180910390fd5b61114f8383836129ce565b505050565b61115c6123bb565b73ffffffffffffffffffffffffffffffffffffffff1661117a611988565b73ffffffffffffffffffffffffffffffffffffffff16146111d0576040517f08c379a00000000000000000000000000000000000000000000000000000000081526004016111c790614f56565b60405180910390fd5b6111da6000612c9d565b565b600073ffffffffffffffffffffffffffffffffffffffff16600960003373ffffffffffffffffffffffffffffffffffffffff1673ffffffffffffffffffffffffffffffffffffffff16815260200190815260200160002060009054906101000a900473ffffffffffffffffffffffffffffffffffffffff1673ffffffffffffffffffffffffffffffffffffffff1614156112ab576040517f08c379a00000000000000000000000000000000000000000000000000000000081526004016112a290614ed6565b60405180910390fd5b670de0b6b3a76400003410156112f6576040517f08c379a00000000000000000000000000000000000000000000000000000000081526004016112ed90614f96565b60405180910390fd5b6000600660009054906101000a900473ffffffffffffffffffffffffffffffffffffffff1673ffffffffffffffffffffffffffffffffffffffff163460405161133e90614b06565b60006040518083038185875af1925050503d806000811461137b576040519150601f19603f3d011682016040523d82523d6000602084013e611380565b606091505b50509050605a670de0b6b3a7640000600a543461139d91906152a5565b6113a79190615274565b6113b19190615274565b600560008282546113c2919061521e565b925050819055506000600a905060006064670de0b6b3a7640000600a54346113ea91906152a5565b6113f49190615274565b6113fe9190615274565b905060003390505b60008360ff1611156115ea57600073ffffffffffffffffffffffffffffffffffffffff16600960008373ffffffffffffffffffffffffffffffffffffffff1673ffffffffffffffffffffffffffffffffffffffff16815260200190815260200160002060009054906101000a900473ffffffffffffffffffffffffffffffffffffffff1673ffffffffffffffffffffffffffffffffffffffff1614611574578160086000600960008573ffffffffffffffffffffffffffffffffffffffff1673ffffffffffffffffffffffffffffffffffffffff16815260200190815260200160002060009054906101000a900473ffffffffffffffffffffffffffffffffffffffff1673ffffffffffffffffffffffffffffffffffffffff1673ffffffffffffffffffffffffffffffffffffffff1681526020019081526020016000206000828254611553919061521e565b92505081905550816005600082825461156c919061521e565b925050819055505b600960008273ffffffffffffffffffffffffffffffffffffffff1673ffffffffffffffffffffffffffffffffffffffff16815260200190815260200160002060009054906101000a900473ffffffffffffffffffffffffffffffffffffffff1690506001836115e39190615333565b9250611406565b7f2240db94b02dfa2b50c35b3a14d1791de977e7b953790806966f2888f0f0eda3333460405161161b929190614c57565b60405180910390a183611663576040517f08c379a000000000000000000000000000000000000000000000000000000000815260040161165a90614e16565b60405180910390fd5b50505050565b6116716123bb565b73ffffffffffffffffffffffffffffffffffffffff1661168f611988565b73ffffffffffffffffffffffffffffffffffffffff16146116e5576040517f08c379a00000000000000000000000000000000000000000000000000000000081526004016116dc90614f56565b60405180910390fd5b6116f184848484612d63565b50505050565b600b5481565b6117056123bb565b73ffffffffffffffffffffffffffffffffffffffff16611723611988565b73ffffffffffffffffffffffffffffffffffffffff1614611779576040517f08c379a000000000000000000000000000000000000000000000000000000000815260040161177090614f56565b60405180910390fd5b611781612f14565b565b61178b6123bb565b73ffffffffffffffffffffffffffffffffffffffff166117a9611988565b73ffffffffffffffffffffffffffffffffffffffff16146117ff576040517f08c379a00000000000000000000000000000000000000000000000000000000081526004016117f690614f56565b60405180910390fd5b600073ffffffffffffffffffffffffffffffffffffffff16600960008373ffffffffffffffffffffffffffffffffffffffff1673ffffffffffffffffffffffffffffffffffffffff16815260200190815260200160002060009054906101000a900473ffffffffffffffffffffffffffffffffffffffff1673ffffffffffffffffffffffffffffffffffffffff16146118cd576040517f08c379a00000000000000000000000000000000000000000000000000000000081526004016118c490615036565b60405180910390fd5b81600960008373ffffffffffffffffffffffffffffffffffffffff1673ffffffffffffffffffffffffffffffffffffffff16815260200190815260200160002060006101000a81548173ffffffffffffffffffffffffffffffffffffffff021916908373ffffffffffffffffffffffffffffffffffffffff1602179055507f2eaee33a45a808b407f386fc59c362f531bcac50128fb7c1534da68bfb7e2720828260405161197c929190614b6c565b60405180910390a15050565b6000600360009054906101000a900473ffffffffffffffffffffffffffffffffffffffff16905090565b6119ba6123bb565b73ffffffffffffffffffffffffffffffffffffffff166119d8611988565b73ffffffffffffffffffffffffffffffffffffffff1614611a2e576040517f08c379a0000000000000000000000000000000000000000000000000000000008152600401611a2590614f56565b60405180910390fd5b80600a8190555050565b611a4a611a436123bb565b8383612fb7565b5050565b600760009054906101000a900473ffffffffffffffffffffffffffffffffffffffff1681565b6001600a5434611a849190615274565b1015611ac5576040517f08c379a0000000000000000000000000000000000000000000000000000000008152600401611abc90614dd6565b60405180910390fd5b6000600660009054906101000a900473ffffffffffffffffffffffffffffffffffffffff1673ffffffffffffffffffffffffffffffffffffffff1634604051611b0d90614b06565b60006040518083038185875af1925050503d8060008114611b4a576040519150601f19603f3d011682016040523d82523d6000602084013e611b4f565b606091505b50509050670de0b6b3a7640000600a5434611b6a91906152a5565b611b749190615274565b600860003373ffffffffffffffffffffffffffffffffffffffff1673ffffffffffffffffffffffffffffffffffffffff1681526020019081526020016000206000828254611bc2919061521e565b92505081905550670de0b6b3a7640000600a5434611be091906152a5565b611bea9190615274565b60056000828254611bfb919061521e565b925050819055507ffa3b4ab85be6e4b69d30a11b10b2dd155ea5edb2ae00d80a3dae99e647ab35fd33670de0b6b3a7640000600a5434611c3b91906152a5565b611c459190615274565b604051611c53929190614c57565b60405180910390a180611c9b576040517f08c379a0000000000000000000000000000000000000000000000000000000008152600401611c9290614e16565b60405180910390fd5b50565b611ca66123bb565b73ffffffffffffffffffffffffffffffffffffffff16611cc4611988565b73ffffffffffffffffffffffffffffffffffffffff1614611d1a576040517f08c379a0000000000000000000000000000000000000000000000000000000008152600401611d1190614f56565b60405180910390fd5b600082600860008473ffffffffffffffffffffffffffffffffffffffff1673ffffffffffffffffffffffffffffffffffffffff16815260200190815260200160002054611d6791906152ff565b1015611da8576040517f08c379a0000000000000000000000000000000000000000000000000000000008152600401611d9f90614e36565b60405180910390fd5b81600860008373ffffffffffffffffffffffffffffffffffffffff1673ffffffffffffffffffffffffffffffffffffffff1681526020019081526020016000206000828254611df791906152ff565b925050819055508160056000828254611e1091906152ff565b925050819055507fd964a27d45f595739c13d8b1160b57491050cacf3a2e5602207277d6228f64ee8282604051611e48929190615071565b60405180910390a15050565b611e5c6123bb565b73ffffffffffffffffffffffffffffffffffffffff16611e7a611988565b73ffffffffffffffffffffffffffffffffffffffff1614611ed0576040517f08c379a0000000000000000000000000000000000000000000000000000000008152600401611ec790614f56565b60405180910390fd5b80600660006101000a81548173ffffffffffffffffffffffffffffffffffffffff021916908373ffffffffffffffffffffffffffffffffffffffff16021790555050565b600060046000838152602001908152602001600020549050919050565b611f396123bb565b73ffffffffffffffffffffffffffffffffffffffff16611f57611988565b73ffffffffffffffffffffffffffffffffffffffff1614611fad576040517f08c379a0000000000000000000000000000000000000000000000000000000008152600401611fa490614f56565b60405180910390fd5b80600760006101000a81548173ffffffffffffffffffffffffffffffffffffffff021916908373ffffffffffffffffffffffffffffffffffffffff1602179055507fd14c3754c4de0576dfc898b54fcef47fb8f958fe6cc8985c94f19c8402c0ff598160405161201d9190614b1b565b60405180910390a150565b6000600160008473ffffffffffffffffffffffffffffffffffffffff1673ffffffffffffffffffffffffffffffffffffffff16815260200190815260200160002060008373ffffffffffffffffffffffffffffffffffffffff1673ffffffffffffffffffffffffffffffffffffffff16815260200190815260200160002060009054906101000a900460ff16905092915050565b6120c46123bb565b73ffffffffffffffffffffffffffffffffffffffff168573ffffffffffffffffffffffffffffffffffffffff16148061210a5750612109856121046123bb565b612028565b5b612149576040517f08c379a000000000000000000000000000000000000000000000000000000000815260040161214090614df6565b60405180910390fd5b6121568585858585613124565b5050505050565b6121656123bb565b73ffffffffffffffffffffffffffffffffffffffff16612183611988565b73ffffffffffffffffffffffffffffffffffffffff16146121d9576040517f08c379a00000000000000000000000000000000000000000000000000000000081526004016121d090614f56565b60405180910390fd5b600073ffffffffffffffffffffffffffffffffffffffff168173ffffffffffffffffffffffffffffffffffffffff161415612249576040517f08c379a000000000000000000000000000000000000000000000000000000000815260040161224090614d96565b60405180910390fd5b61225281612c9d565b50565b60096020528060005260406000206000915054906101000a900473ffffffffffffffffffffffffffffffffffffffff1681565b6122906123bb565b73ffffffffffffffffffffffffffffffffffffffff168373ffffffffffffffffffffffffffffffffffffffff1614806122d657506122d5836122d06123bb565b612028565b5b612315576040517f08c379a000000000000000000000000000000000000000000000000000000000815260040161230c90614df6565b60405180910390fd5b6123208383836133c0565b505050565b600a5481565b600660009054906101000a900473ffffffffffffffffffffffffffffffffffffffff1681565b60007f01ffc9a7000000000000000000000000000000000000000000000000000000007bffffffffffffffffffffffffffffffffffffffffffffffffffffffff1916827bffffffffffffffffffffffffffffffffffffffffffffffffffffffff1916149050919050565b600033905090565b80600290805190602001906123d9929190613cb2565b5050565b600073ffffffffffffffffffffffffffffffffffffffff168473ffffffffffffffffffffffffffffffffffffffff16141561244d576040517f08c379a000000000000000000000000000000000000000000000000000000000815260040161244490615016565b60405180910390fd5b8151835114612491576040517f08c379a000000000000000000000000000000000000000000000000000000000815260040161248890614ff6565b60405180910390fd5b600061249b6123bb565b90506124ac81600087878787613607565b60005b8451811015612565578381815181106124cb576124ca6155ab565b5b60200260200101516000808784815181106124e9576124e86155ab565b5b6020026020010151815260200190815260200160002060008873ffffffffffffffffffffffffffffffffffffffff1673ffffffffffffffffffffffffffffffffffffffff168152602001908152602001600020600082825461254b919061521e565b92505081905550808061255d906154d5565b9150506124af565b508473ffffffffffffffffffffffffffffffffffffffff16600073ffffffffffffffffffffffffffffffffffffffff168273ffffffffffffffffffffffffffffffffffffffff167f4a39dc06d4c0dbc64b70af90fd698a233a518aa5d07e595d983b8c0526c8f7fb87876040516125dd929190614ca2565b60405180910390a46125f481600087878787613665565b6126038160008787878761366d565b5050505050565b815183511461264e576040517f08c379a000000000000000000000000000000000000000000000000000000000815260040161264590614ff6565b60405180910390fd5b600073ffffffffffffffffffffffffffffffffffffffff168473ffffffffffffffffffffffffffffffffffffffff1614156126be576040517f08c379a00000000000000000000000000000000000000000000000000000000081526004016126b590614e96565b60405180910390fd5b60006126c86123bb565b90506126d8818787878787613607565b60005b84518110156128895760008582815181106126f9576126f86155ab565b5b602002602001015190506000858381518110612718576127176155ab565b5b60200260200101519050600080600084815260200190815260200160002060008b73ffffffffffffffffffffffffffffffffffffffff1673ffffffffffffffffffffffffffffffffffffffff168152602001908152602001600020549050818110156127b9576040517f08c379a00000000000000000000000000000000000000000000000000000000081526004016127b090614f36565b60405180910390fd5b81810360008085815260200190815260200160002060008c73ffffffffffffffffffffffffffffffffffffffff1673ffffffffffffffffffffffffffffffffffffffff168152602001908152602001600020819055508160008085815260200190815260200160002060008b73ffffffffffffffffffffffffffffffffffffffff1673ffffffffffffffffffffffffffffffffffffffff168152602001908152602001600020600082825461286e919061521e565b9250508190555050505080612882906154d5565b90506126db565b508473ffffffffffffffffffffffffffffffffffffffff168673ffffffffffffffffffffffffffffffffffffffff168273ffffffffffffffffffffffffffffffffffffffff167f4a39dc06d4c0dbc64b70af90fd698a233a518aa5d07e595d983b8c0526c8f7fb8787604051612900929190614ca2565b60405180910390a4612916818787878787613665565b61292481878787878761366d565b505050505050565b6129346110a0565b612973576040517f08c379a000000000000000000000000000000000000000000000000000000000815260040161296a90614d56565b60405180910390fd5b6000600360146101000a81548160ff0219169083151502179055507f5db9ee0a495bf2e6ff9c91a7834c1ba4fdd244a5e8aa4e537bd38aeae4b073aa6129b76123bb565b6040516129c49190614b1b565b60405180910390a1565b600073ffffffffffffffffffffffffffffffffffffffff168373ffffffffffffffffffffffffffffffffffffffff161415612a3e576040517f08c379a0000000000000000000000000000000000000000000000000000000008152600401612a3590614f16565b60405180910390fd5b8051825114612a82576040517f08c379a0000000000000000000000000000000000000000000000000000000008152600401612a7990614ff6565b60405180910390fd5b6000612a8c6123bb565b9050612aac81856000868660405180602001604052806000815250613607565b60005b8351811015612bf9576000848281518110612acd57612acc6155ab565b5b602002602001015190506000848381518110612aec57612aeb6155ab565b5b60200260200101519050600080600084815260200190815260200160002060008973ffffffffffffffffffffffffffffffffffffffff1673ffffffffffffffffffffffffffffffffffffffff16815260200190815260200160002054905081811015612b8d576040517f08c379a0000000000000000000000000000000000000000000000000000000008152600401612b8490614db6565b60405180910390fd5b81810360008085815260200190815260200160002060008a73ffffffffffffffffffffffffffffffffffffffff1673ffffffffffffffffffffffffffffffffffffffff168152602001908152602001600020819055505050508080612bf1906154d5565b915050612aaf565b50600073ffffffffffffffffffffffffffffffffffffffff168473ffffffffffffffffffffffffffffffffffffffff168273ffffffffffffffffffffffffffffffffffffffff167f4a39dc06d4c0dbc64b70af90fd698a233a518aa5d07e595d983b8c0526c8f7fb8686604051612c71929190614ca2565b60405180910390a4612c9781856000868660405180602001604052806000815250613665565b50505050565b6000600360009054906101000a900473ffffffffffffffffffffffffffffffffffffffff16905081600360006101000a81548173ffffffffffffffffffffffffffffffffffffffff021916908373ffffffffffffffffffffffffffffffffffffffff1602179055508173ffffffffffffffffffffffffffffffffffffffff168173ffffffffffffffffffffffffffffffffffffffff167f8be0079c531659141344cd1fd0a4f28419497f9722a3daafe3b4186f6b6457e060405160405180910390a35050565b600073ffffffffffffffffffffffffffffffffffffffff168473ffffffffffffffffffffffffffffffffffffffff161415612dd3576040517f08c379a0000000000000000000000000000000000000000000000000000000008152600401612dca90615016565b60405180910390fd5b6000612ddd6123bb565b90506000612dea85613854565b90506000612df785613854565b9050612e0883600089858589613607565b8460008088815260200190815260200160002060008973ffffffffffffffffffffffffffffffffffffffff1673ffffffffffffffffffffffffffffffffffffffff1681526020019081526020016000206000828254612e67919061521e565b925050819055508673ffffffffffffffffffffffffffffffffffffffff16600073ffffffffffffffffffffffffffffffffffffffff168473ffffffffffffffffffffffffffffffffffffffff167fc3d58168c5ae7397731d063d5bbf3d657854427343f4c083240f7aacaa2d0f628989604051612ee592919061509a565b60405180910390a4612efc83600089858589613665565b612f0b836000898989896138ce565b50505050505050565b612f1c6110a0565b15612f5c576040517f08c379a0000000000000000000000000000000000000000000000000000000008152600401612f5390614e76565b60405180910390fd5b6001600360146101000a81548160ff0219169083151502179055507f62e78cea01bee320cd4e420270b5ea74000d11b0c9f74754ebdbfc544b05a258612fa06123bb565b604051612fad9190614b1b565b60405180910390a1565b8173ffffffffffffffffffffffffffffffffffffffff168373ffffffffffffffffffffffffffffffffffffffff161415613026576040517f08c379a000000000000000000000000000000000000000000000000000000000815260040161301d90614fb6565b60405180910390fd5b80600160008573ffffffffffffffffffffffffffffffffffffffff1673ffffffffffffffffffffffffffffffffffffffff16815260200190815260200160002060008473ffffffffffffffffffffffffffffffffffffffff1673ffffffffffffffffffffffffffffffffffffffff16815260200190815260200160002060006101000a81548160ff0219169083151502179055508173ffffffffffffffffffffffffffffffffffffffff168373ffffffffffffffffffffffffffffffffffffffff167f17307eab39ab6107e8899845ad3d59bd9653f200f220920489ca2b5937696c31836040516131179190614cd9565b60405180910390a3505050565b600073ffffffffffffffffffffffffffffffffffffffff168473ffffffffffffffffffffffffffffffffffffffff161415613194576040517f08c379a000000000000000000000000000000000000000000000000000000000815260040161318b90614e96565b60405180910390fd5b600061319e6123bb565b905060006131ab85613854565b905060006131b885613854565b90506131c8838989858589613607565b600080600088815260200190815260200160002060008a73ffffffffffffffffffffffffffffffffffffffff1673ffffffffffffffffffffffffffffffffffffffff1681526020019081526020016000205490508581101561325f576040517f08c379a000000000000000000000000000000000000000000000000000000000815260040161325690614f36565b60405180910390fd5b85810360008089815260200190815260200160002060008b73ffffffffffffffffffffffffffffffffffffffff1673ffffffffffffffffffffffffffffffffffffffff168152602001908152602001600020819055508560008089815260200190815260200160002060008a73ffffffffffffffffffffffffffffffffffffffff1673ffffffffffffffffffffffffffffffffffffffff1681526020019081526020016000206000828254613314919061521e565b925050819055508773ffffffffffffffffffffffffffffffffffffffff168973ffffffffffffffffffffffffffffffffffffffff168573ffffffffffffffffffffffffffffffffffffffff167fc3d58168c5ae7397731d063d5bbf3d657854427343f4c083240f7aacaa2d0f628a8a60405161339192919061509a565b60405180910390a46133a7848a8a86868a613665565b6133b5848a8a8a8a8a6138ce565b505050505050505050565b600073ffffffffffffffffffffffffffffffffffffffff168373ffffffffffffffffffffffffffffffffffffffff161415613430576040517f08c379a000000000000000000000000000000000000000000000000000000000815260040161342790614f16565b60405180910390fd5b600061343a6123bb565b9050600061344784613854565b9050600061345484613854565b905061347483876000858560405180602001604052806000815250613607565b600080600087815260200190815260200160002060008873ffffffffffffffffffffffffffffffffffffffff1673ffffffffffffffffffffffffffffffffffffffff1681526020019081526020016000205490508481101561350b576040517f08c379a000000000000000000000000000000000000000000000000000000000815260040161350290614db6565b60405180910390fd5b84810360008088815260200190815260200160002060008973ffffffffffffffffffffffffffffffffffffffff1673ffffffffffffffffffffffffffffffffffffffff16815260200190815260200160002081905550600073ffffffffffffffffffffffffffffffffffffffff168773ffffffffffffffffffffffffffffffffffffffff168573ffffffffffffffffffffffffffffffffffffffff167fc3d58168c5ae7397731d063d5bbf3d657854427343f4c083240f7aacaa2d0f6289896040516135d892919061509a565b60405180910390a46135fe84886000868660405180602001604052806000815250613665565b50505050505050565b61360f6110a0565b1561364f576040517f08c379a000000000000000000000000000000000000000000000000000000000815260040161364690614e76565b60405180910390fd5b61365d868686868686613ab5565b505050505050565b505050505050565b61368c8473ffffffffffffffffffffffffffffffffffffffff16613c87565b1561384c578373ffffffffffffffffffffffffffffffffffffffff1663bc197c8187878686866040518663ffffffff1660e01b81526004016136d2959493929190614b95565b602060405180830381600087803b1580156136ec57600080fd5b505af192505050801561371d57506040513d601f19601f8201168201806040525081019061371a9190614530565b60015b6137c357613729615609565b806308c379a01415613786575061373e615d87565b806137495750613788565b806040517f08c379a000000000000000000000000000000000000000000000000000000000815260040161377d9190614cf4565b60405180910390fd5b505b6040517f08c379a00000000000000000000000000000000000000000000000000000000081526004016137ba90614d16565b60405180910390fd5b63bc197c8160e01b7bffffffffffffffffffffffffffffffffffffffffffffffffffffffff1916817bffffffffffffffffffffffffffffffffffffffffffffffffffffffff19161461384a576040517f08c379a000000000000000000000000000000000000000000000000000000000815260040161384190614d36565b60405180910390fd5b505b505050505050565b60606000600167ffffffffffffffff811115613873576138726155da565b5b6040519080825280602002602001820160405280156138a15781602001602082028036833780820191505090505b50905082816000815181106138b9576138b86155ab565b5b60200260200101818152505080915050919050565b6138ed8473ffffffffffffffffffffffffffffffffffffffff16613c87565b15613aad578373ffffffffffffffffffffffffffffffffffffffff1663f23a6e6187878686866040518663ffffffff1660e01b8152600401613933959493929190614bfd565b602060405180830381600087803b15801561394d57600080fd5b505af192505050801561397e57506040513d601f19601f8201168201806040525081019061397b9190614530565b60015b613a245761398a615609565b806308c379a014156139e7575061399f615d87565b806139aa57506139e9565b806040517f08c379a00000000000000000000000000000000000000000000000000000000081526004016139de9190614cf4565b60405180910390fd5b505b6040517f08c379a0000000000000000000000000000000000000000000000000000000008152600401613a1b90614d16565b60405180910390fd5b63f23a6e6160e01b7bffffffffffffffffffffffffffffffffffffffffffffffffffffffff1916817bffffffffffffffffffffffffffffffffffffffffffffffffffffffff191614613aab576040517f08c379a0000000000000000000000000000000000000000000000000000000008152600401613aa290614d36565b60405180910390fd5b505b505050505050565b613ac3868686868686613caa565b600073ffffffffffffffffffffffffffffffffffffffff168573ffffffffffffffffffffffffffffffffffffffff161415613b755760005b8351811015613b7357828181518110613b1757613b166155ab565b5b602002602001015160046000868481518110613b3657613b356155ab565b5b602002602001015181526020019081526020016000206000828254613b5b919061521e565b9250508190555080613b6c906154d5565b9050613afb565b505b600073ffffffffffffffffffffffffffffffffffffffff168473ffffffffffffffffffffffffffffffffffffffff161415613c7f5760005b8351811015613c7d576000848281518110613bcb57613bca6155ab565b5b602002602001015190506000848381518110613bea57613be96155ab565b5b6020026020010151905060006004600084815260200190815260200160002054905081811015613c4f576040517f08c379a0000000000000000000000000000000000000000000000000000000008152600401613c4690614f76565b60405180910390fd5b818103600460008581526020019081526020016000208190555050505080613c76906154d5565b9050613bad565b505b505050505050565b6000808273ffffffffffffffffffffffffffffffffffffffff163b119050919050565b505050505050565b828054613cbe90615472565b90600052602060002090601f016020900481019282613ce05760008555613d27565b82601f10613cf957805160ff1916838001178555613d27565b82800160010185558215613d27579182015b82811115613d26578251825591602001919060010190613d0b565b5b509050613d349190613d38565b5090565b5b80821115613d51576000816000905550600101613d39565b5090565b6000613d68613d63846150e8565b6150c3565b90508083825260208201905082856020860282011115613d8b57613d8a615630565b5b60005b85811015613dbb5781613da18882613eb9565b845260208401935060208301925050600181019050613d8e565b5050509392505050565b6000613dd8613dd384615114565b6150c3565b90508083825260208201905082856020860282011115613dfb57613dfa615630565b5b60005b85811015613e2b5781613e118882613fda565b845260208401935060208301925050600181019050613dfe565b5050509392505050565b6000613e48613e4384615140565b6150c3565b905082815260208101848484011115613e6457613e63615635565b5b613e6f848285615430565b509392505050565b6000613e8a613e8584615171565b6150c3565b905082815260208101848484011115613ea657613ea5615635565b5b613eb1848285615430565b509392505050565b600081359050613ec881615e1d565b92915050565b600081359050613edd81615e34565b92915050565b600082601f830112613ef857613ef761562b565b5b8135613f08848260208601613d55565b91505092915050565b600082601f830112613f2657613f2561562b565b5b8135613f36848260208601613dc5565b91505092915050565b600081359050613f4e81615e4b565b92915050565b600081359050613f6381615e62565b92915050565b600081519050613f7881615e62565b92915050565b600082601f830112613f9357613f9261562b565b5b8135613fa3848260208601613e35565b91505092915050565b600082601f830112613fc157613fc061562b565b5b8135613fd1848260208601613e77565b91505092915050565b600081359050613fe981615e79565b92915050565b6000602082840312156140055761400461563f565b5b600061401384828501613eb9565b91505092915050565b6000602082840312156140325761403161563f565b5b600061404084828501613ece565b91505092915050565b600080604083850312156140605761405f61563f565b5b600061406e85828601613eb9565b925050602061407f85828601613eb9565b9150509250929050565b600080600080600060a086880312156140a5576140a461563f565b5b60006140b388828901613eb9565b95505060206140c488828901613eb9565b945050604086013567ffffffffffffffff8111156140e5576140e461563a565b5b6140f188828901613f11565b935050606086013567ffffffffffffffff8111156141125761411161563a565b5b61411e88828901613f11565b925050608086013567ffffffffffffffff81111561413f5761413e61563a565b5b61414b88828901613f7e565b9150509295509295909350565b600080600080600060a086880312156141745761417361563f565b5b600061418288828901613eb9565b955050602061419388828901613eb9565b94505060406141a488828901613fda565b93505060606141b588828901613fda565b925050608086013567ffffffffffffffff8111156141d6576141d561563a565b5b6141e288828901613f7e565b9150509295509295909350565b6000806000606084860312156142085761420761563f565b5b600061421686828701613eb9565b935050602084013567ffffffffffffffff8111156142375761423661563a565b5b61424386828701613f11565b925050604084013567ffffffffffffffff8111156142645761426361563a565b5b61427086828701613f11565b9150509250925092565b600080600080608085870312156142945761429361563f565b5b60006142a287828801613eb9565b945050602085013567ffffffffffffffff8111156142c3576142c261563a565b5b6142cf87828801613f11565b935050604085013567ffffffffffffffff8111156142f0576142ef61563a565b5b6142fc87828801613f11565b925050606085013567ffffffffffffffff81111561431d5761431c61563a565b5b61432987828801613f7e565b91505092959194509250565b6000806040838503121561434c5761434b61563f565b5b600061435a85828601613eb9565b925050602061436b85828601613f3f565b9150509250929050565b6000806040838503121561438c5761438b61563f565b5b600061439a85828601613eb9565b92505060206143ab85828601613fda565b9150509250929050565b6000806000606084860312156143ce576143cd61563f565b5b60006143dc86828701613eb9565b93505060206143ed86828701613fda565b92505060406143fe86828701613fda565b9150509250925092565b600080600080608085870312156144225761442161563f565b5b600061443087828801613eb9565b945050602061444187828801613fda565b935050604061445287828801613fda565b925050606085013567ffffffffffffffff8111156144735761447261563a565b5b61447f87828801613f7e565b91505092959194509250565b600080604083850312156144a2576144a161563f565b5b600083013567ffffffffffffffff8111156144c0576144bf61563a565b5b6144cc85828601613ee3565b925050602083013567ffffffffffffffff8111156144ed576144ec61563a565b5b6144f985828601613f11565b9150509250929050565b6000602082840312156145195761451861563f565b5b600061452784828501613f54565b91505092915050565b6000602082840312156145465761454561563f565b5b600061455484828501613f69565b91505092915050565b6000602082840312156145735761457261563f565b5b600082013567ffffffffffffffff8111156145915761459061563a565b5b61459d84828501613fac565b91505092915050565b6000602082840312156145bc576145bb61563f565b5b60006145ca84828501613fda565b91505092915050565b600080604083850312156145ea576145e961563f565b5b60006145f885828601613fda565b925050602061460985828601613eb9565b9150509250929050565b600061461f8383614ae8565b60208301905092915050565b614634816153fa565b82525050565b61464381615379565b82525050565b61465281615367565b82525050565b6000614663826151b2565b61466d81856151e0565b9350614678836151a2565b8060005b838110156146a95781516146908882614613565b975061469b836151d3565b92505060018101905061467c565b5085935050505092915050565b6146bf8161538b565b82525050565b60006146d0826151bd565b6146da81856151f1565b93506146ea81856020860161543f565b6146f381615644565b840191505092915050565b6000614709826151c8565b614713818561520d565b935061472381856020860161543f565b61472c81615644565b840191505092915050565b600061474460348361520d565b915061474f82615662565b604082019050919050565b600061476760288361520d565b9150614772826156b1565b604082019050919050565b600061478a60148361520d565b915061479582615700565b602082019050919050565b60006147ad602b8361520d565b91506147b882615729565b604082019050919050565b60006147d060268361520d565b91506147db82615778565b604082019050919050565b60006147f360248361520d565b91506147fe826157c7565b604082019050919050565b6000614816602f8361520d565b915061482182615816565b604082019050919050565b600061483960298361520d565b915061484482615865565b604082019050919050565b600061485c60148361520d565b9150614867826158b4565b602082019050919050565b600061487f60238361520d565b915061488a826158dd565b604082019050919050565b60006148a260218361520d565b91506148ad8261592c565b604082019050919050565b60006148c560108361520d565b91506148d08261597b565b602082019050919050565b60006148e860258361520d565b91506148f3826159a4565b604082019050919050565b600061490b60328361520d565b9150614916826159f3565b604082019050919050565b600061492e60168361520d565b915061493982615a42565b602082019050919050565b600061495160268361520d565b915061495c82615a6b565b604082019050919050565b600061497460238361520d565b915061497f82615aba565b604082019050919050565b6000614997602a8361520d565b91506149a282615b09565b604082019050919050565b60006149ba60208361520d565b91506149c582615b58565b602082019050919050565b60006149dd60288361520d565b91506149e882615b81565b604082019050919050565b6000614a0060328361520d565b9150614a0b82615bd0565b604082019050919050565b6000614a23600083615202565b9150614a2e82615c1f565b600082019050919050565b6000614a4660298361520d565b9150614a5182615c22565b604082019050919050565b6000614a6960298361520d565b9150614a7482615c71565b604082019050919050565b6000614a8c60288361520d565b9150614a9782615cc0565b604082019050919050565b6000614aaf60218361520d565b9150614aba82615d0f565b604082019050919050565b6000614ad260168361520d565b9150614add82615d5e565b602082019050919050565b614af1816153e3565b82525050565b614b00816153e3565b82525050565b6000614b1182614a16565b9150819050919050565b6000602082019050614b306000830184614649565b92915050565b6000602082019050614b4b600083018461462b565b92915050565b6000602082019050614b66600083018461463a565b92915050565b6000604082019050614b816000830185614649565b614b8e6020830184614649565b9392505050565b600060a082019050614baa6000830188614649565b614bb76020830187614649565b8181036040830152614bc98186614658565b90508181036060830152614bdd8185614658565b90508181036080830152614bf181846146c5565b90509695505050505050565b600060a082019050614c126000830188614649565b614c1f6020830187614649565b614c2c6040830186614af7565b614c396060830185614af7565b8181036080830152614c4b81846146c5565b90509695505050505050565b6000604082019050614c6c6000830185614649565b614c796020830184614af7565b9392505050565b60006020820190508181036000830152614c9a8184614658565b905092915050565b60006040820190508181036000830152614cbc8185614658565b90508181036020830152614cd08184614658565b90509392505050565b6000602082019050614cee60008301846146b6565b92915050565b60006020820190508181036000830152614d0e81846146fe565b905092915050565b60006020820190508181036000830152614d2f81614737565b9050919050565b60006020820190508181036000830152614d4f8161475a565b9050919050565b60006020820190508181036000830152614d6f8161477d565b9050919050565b60006020820190508181036000830152614d8f816147a0565b9050919050565b60006020820190508181036000830152614daf816147c3565b9050919050565b60006020820190508181036000830152614dcf816147e6565b9050919050565b60006020820190508181036000830152614def81614809565b9050919050565b60006020820190508181036000830152614e0f8161482c565b9050919050565b60006020820190508181036000830152614e2f8161484f565b9050919050565b60006020820190508181036000830152614e4f81614872565b9050919050565b60006020820190508181036000830152614e6f81614895565b9050919050565b60006020820190508181036000830152614e8f816148b8565b9050919050565b60006020820190508181036000830152614eaf816148db565b9050919050565b60006020820190508181036000830152614ecf816148fe565b9050919050565b60006020820190508181036000830152614eef81614921565b9050919050565b60006020820190508181036000830152614f0f81614944565b9050919050565b60006020820190508181036000830152614f2f81614967565b9050919050565b60006020820190508181036000830152614f4f8161498a565b9050919050565b60006020820190508181036000830152614f6f816149ad565b9050919050565b60006020820190508181036000830152614f8f816149d0565b9050919050565b60006020820190508181036000830152614faf816149f3565b9050919050565b60006020820190508181036000830152614fcf81614a39565b9050919050565b60006020820190508181036000830152614fef81614a5c565b9050919050565b6000602082019050818103600083015261500f81614a7f565b9050919050565b6000602082019050818103600083015261502f81614aa2565b9050919050565b6000602082019050818103600083015261504f81614ac5565b9050919050565b600060208201905061506b6000830184614af7565b92915050565b60006040820190506150866000830185614af7565b6150936020830184614649565b9392505050565b60006040820190506150af6000830185614af7565b6150bc6020830184614af7565b9392505050565b60006150cd6150de565b90506150d982826154a4565b919050565b6000604051905090565b600067ffffffffffffffff821115615103576151026155da565b5b602082029050602081019050919050565b600067ffffffffffffffff82111561512f5761512e6155da565b5b602082029050602081019050919050565b600067ffffffffffffffff82111561515b5761515a6155da565b5b61516482615644565b9050602081019050919050565b600067ffffffffffffffff82111561518c5761518b6155da565b5b61519582615644565b9050602081019050919050565b6000819050602082019050919050565b600081519050919050565b600081519050919050565b600081519050919050565b6000602082019050919050565b600082825260208201905092915050565b600082825260208201905092915050565b600081905092915050565b600082825260208201905092915050565b6000615229826153e3565b9150615234836153e3565b9250827fffffffffffffffffffffffffffffffffffffffffffffffffffffffffffffffff038211156152695761526861551e565b5b828201905092915050565b600061527f826153e3565b915061528a836153e3565b92508261529a5761529961554d565b5b828204905092915050565b60006152b0826153e3565b91506152bb836153e3565b9250817fffffffffffffffffffffffffffffffffffffffffffffffffffffffffffffffff04831182151516156152f4576152f361551e565b5b828202905092915050565b600061530a826153e3565b9150615315836153e3565b9250828210156153285761532761551e565b5b828203905092915050565b600061533e826153ed565b9150615349836153ed565b92508282101561535c5761535b61551e565b5b828203905092915050565b6000615372826153c3565b9050919050565b6000615384826153c3565b9050919050565b60008115159050919050565b60007fffffffff0000000000000000000000000000000000000000000000000000000082169050919050565b600073ffffffffffffffffffffffffffffffffffffffff82169050919050565b6000819050919050565b600060ff82169050919050565b60006154058261540c565b9050919050565b60006154178261541e565b9050919050565b6000615429826153c3565b9050919050565b82818337600083830152505050565b60005b8381101561545d578082015181840152602081019050615442565b8381111561546c576000848401525b50505050565b6000600282049050600182168061548a57607f821691505b6020821081141561549e5761549d61557c565b5b50919050565b6154ad82615644565b810181811067ffffffffffffffff821117156154cc576154cb6155da565b5b80604052505050565b60006154e0826153e3565b91507fffffffffffffffffffffffffffffffffffffffffffffffffffffffffffffffff8214156155135761551261551e565b5b600182019050919050565b7f4e487b7100000000000000000000000000000000000000000000000000000000600052601160045260246000fd5b7f4e487b7100000000000000000000000000000000000000000000000000000000600052601260045260246000fd5b7f4e487b7100000000000000000000000000000000000000000000000000000000600052602260045260246000fd5b7f4e487b7100000000000000000000000000000000000000000000000000000000600052603260045260246000fd5b7f4e487b7100000000000000000000000000000000000000000000000000000000600052604160045260246000fd5b600060033d11156156285760046000803e615625600051615655565b90505b90565b600080fd5b600080fd5b600080fd5b600080fd5b600080fd5b6000601f19601f8301169050919050565b60008160e01c9050919050565b7f455243313135353a207472616e7366657220746f206e6f6e204552433131353560008201527f526563656976657220696d706c656d656e746572000000000000000000000000602082015250565b7f455243313135353a204552433131353552656365697665722072656a6563746560008201527f6420746f6b656e73000000000000000000000000000000000000000000000000602082015250565b7f5061757361626c653a206e6f7420706175736564000000000000000000000000600082015250565b7f455243313135353a2062616c616e636520717565727920666f7220746865207a60008201527f65726f2061646472657373000000000000000000000000000000000000000000602082015250565b7f4f776e61626c653a206e6577206f776e657220697320746865207a65726f206160008201527f6464726573730000000000000000000000000000000000000000000000000000602082015250565b7f455243313135353a206275726e20616d6f756e7420657863656564732062616c60008201527f616e636500000000000000000000000000000000000000000000000000000000602082015250565b7f56616c7565206d7573742065786368616e6765206174206c65617374206f6e6560008201527f20547265617375727920556e69742e0000000000000000000000000000000000602082015250565b7f455243313135353a2063616c6c6572206973206e6f74206f776e6572206e6f7260008201527f20617070726f7665640000000000000000000000000000000000000000000000602082015250565b7f4661696c656420746f2073656e64206d6f6e6579000000000000000000000000600082015250565b7f486173206e6f7420656e6f7567682062616c616e636520746f2077697468647260008201527f61772e0000000000000000000000000000000000000000000000000000000000602082015250565b7f4d7573742062652070617573656420746f2073746172742062616e6b7275706360008201527f7900000000000000000000000000000000000000000000000000000000000000602082015250565b7f5061757361626c653a2070617573656400000000000000000000000000000000600082015250565b7f455243313135353a207472616e7366657220746f20746865207a65726f20616460008201527f6472657373000000000000000000000000000000000000000000000000000000602082015250565b7f455243313135353a207472616e736665722063616c6c6572206973206e6f742060008201527f6f776e6572206e6f7220617070726f7665640000000000000000000000000000602082015250565b7f53656e646572206e656564206120726566657265722e00000000000000000000600082015250565b7f436f6e747261637420726571756972657320616e2065786368616e676520616460008201527f64726573732e0000000000000000000000000000000000000000000000000000602082015250565b7f455243313135353a206275726e2066726f6d20746865207a65726f206164647260008201527f6573730000000000000000000000000000000000000000000000000000000000602082015250565b7f455243313135353a20696e73756666696369656e742062616c616e636520666f60008201527f72207472616e7366657200000000000000000000000000000000000000000000602082015250565b7f4f776e61626c653a2063616c6c6572206973206e6f7420746865206f776e6572600082015250565b7f455243313135353a206275726e20616d6f756e74206578636565647320746f7460008201527f616c537570706c79000000000000000000000000000000000000000000000000602082015250565b7f56616c7565206d7573742062652067726561646572206f7220657175616c207460008201527f68616e20612063727970746f20556e69742e0000000000000000000000000000602082015250565b50565b7f455243313135353a2073657474696e6720617070726f76616c2073746174757360008201527f20666f722073656c660000000000000000000000000000000000000000000000602082015250565b7f455243313135353a206163636f756e747320616e6420696473206c656e67746860008201527f206d69736d617463680000000000000000000000000000000000000000000000602082015250565b7f455243313135353a2069647320616e6420616d6f756e7473206c656e6774682060008201527f6d69736d61746368000000000000000000000000000000000000000000000000602082015250565b7f455243313135353a206d696e7420746f20746865207a65726f2061646472657360008201527f7300000000000000000000000000000000000000000000000000000000000000602082015250565b7f5365742072656665726572206f6e6c79206f6e63652e00000000000000000000600082015250565b600060443d1015615d9757615e1a565b615d9f6150de565b60043d036004823e80513d602482011167ffffffffffffffff82111715615dc7575050615e1a565b808201805167ffffffffffffffff811115615de55750505050615e1a565b80602083010160043d038501811115615e02575050505050615e1a565b615e11826020018501866154a4565b82955050505050505b90565b615e2681615367565b8114615e3157600080fd5b50565b615e3d81615379565b8114615e4857600080fd5b50565b615e548161538b565b8114615e5f57600080fd5b50565b615e6b81615397565b8114615e7657600080fd5b50565b615e82816153e3565b8114615e8d57600080fd5b5056fea2646970667358221220a3429e7901fa98b53aff8442d10cc4c9c170fd1dcad2e6833151799e7e5dc7b364736f6c63430008070033",
  "immutableReferences": {},
  "source": "// SPDX-License-Identifier: GPL-3.0\npragma solidity ^0.8.7;\n\nimport { ERC1155 } from  \"@openzeppelin/contracts/token/ERC1155/ERC1155.sol\";\nimport { Ownable } from \"@openzeppelin/contracts/access/Ownable.sol\";\nimport { Pausable } from  \"@openzeppelin/contracts/security/Pausable.sol\";\nimport { ERC1155Burnable } from  \"@openzeppelin/contracts/token/ERC1155/extensions/ERC1155Burnable.sol\";\nimport { ERC1155Supply } from \"@openzeppelin/contracts/token/ERC1155/extensions/ERC1155Supply.sol\";\n\n/// @custom:security-contact german.lugo@bitnibs.com\ncontract Treasury is ERC1155, Ownable, Pausable, ERC1155Burnable, ERC1155Supply {\n\n    uint public treasuryBalance;\n    address payable public treasuryBox;\n    address payable public exchangeChannel;\n\n    mapping ( address => uint256 ) public treasuryBalanceOf;\n    mapping ( address => address ) public referer;\n    uint public treasuryCoinPrice;\n    uint public refererRegister;\n\n    uint constant multiplier = 10**18;\n\n    event SentFee(bytes _data);\n    event Withdrawal(uint256 _value, address _address);\n    event SettedReferer(address _refered, address _refering);\n    event SetExchangeChannel(address _address);\n    event SendToExchange(uint256 _value);\n    event OutSourcing(address _sender, uint256 _value);\n    event Assignment(address _sender, uint256 _value);\n    event Bankruptcy(address _newOwner);\n\n    constructor() payable ERC1155(\"\") {\n        treasuryBox = payable(msg.sender);\n        referer[msg.sender] = address(this);\n        treasuryCoinPrice = multiplier;\n    }\n\n    function setTreasuryEuroPrice (uint _polygonPrice) public onlyOwner {\n        treasuryCoinPrice = _polygonPrice;\n    }\n\n    function getBalance() public view returns(uint) {\n        return address(this).balance;\n    }\n\n    function withdrawFunding() internal {\n        require(exchangeChannel != address(0), \"Contract requires an exchange address.\");\n        emit SendToExchange(getBalance());\n        exchangeChannel.transfer(getBalance());\n    }\n\n    function setExchangeAddress(address _address) public onlyOwner {\n        exchangeChannel = payable(_address);\n        emit SetExchangeChannel(_address);\n    }\n\n    function setReferer (address _referring, address _referred) public onlyOwner {\n        require(referer[_referred] == address(0), \"Set referer only once.\");\n        referer[_referred] = _referring;\n        emit SettedReferer(_referring, _referred);\n    }\n\n    function outSourcing() public payable {\n        require(msg.value / treasuryCoinPrice >= 1, \"Value must exchange at least one Treasury Unit.\");\n        (bool success, ) = treasuryBox.call{value: msg.value }(\"\");\n        treasuryBalanceOf[msg.sender] += msg.value * treasuryCoinPrice / multiplier ;\n        treasuryBalance += msg.value * treasuryCoinPrice / multiplier;\n        emit OutSourcing(msg.sender, msg.value * treasuryCoinPrice / multiplier );\n        require(success, \"Failed to send money\");\n    }\n    \n    function assignment() public payable {\n        require(referer[msg.sender] != address(0), \"Sender need a referer.\");\n        require(msg.value >= 10 ** 18, \"Value must be greader or equal than a crypto Unit.\");\n        (bool success, ) = treasuryBox.call{value: msg.value }(\"\");\n        treasuryBalance += msg.value * treasuryCoinPrice / multiplier / 90;\n        uint8 indx = 10;\n        uint256 fee = msg.value * treasuryCoinPrice / multiplier / 100;\n        address ref = msg.sender;\n        while(indx > 0) {\n            if(referer[ref] != address(0)) {\n                treasuryBalanceOf[referer[ref]] += fee;\n                treasuryBalance += fee;\n            }\n            ref = referer[ref];\n            indx -= 1;\n        }\n        emit Assignment(msg.sender, msg.value);\n        require(success, \"Failed to send money\");\n    }\n\n    function withdrawFrom(uint256 _value, address _address) public onlyOwner {\n        require(treasuryBalanceOf[_address] - _value >= 0 , \"Has not enough balance to withdraw.\");\n        treasuryBalanceOf[_address] -= _value;\n        treasuryBalance -= _value;\n        emit Withdrawal(_value, _address);\n    }\n\n    function bankruptcy() public onlyOwner {\n        bool a = paused();\n        require(a, \"Must be paused to start bankrupcy\");\n        // TODO: return assets to creditors;\n        setTreasuryBox(payable(address(0)));\n        emit Bankruptcy(treasuryBox);\n    }\n\n    function setTreasuryBox(address payable _newTreasuryBox) public onlyOwner {\n        treasuryBox = _newTreasuryBox;\n    }\n\n    function setURI(string memory newuri) public onlyOwner {\n        _setURI(newuri);\n    }\n\n    function pause() public onlyOwner {\n        _pause();\n    }\n\n    function unpause() public onlyOwner {\n        _unpause();\n    }\n\n    function mint(address account, uint256 id, uint256 amount, bytes memory data)\n        public\n        onlyOwner\n    {\n        _mint(account, id, amount, data);\n    }\n\n    function mintBatch(address to, uint256[] memory ids, uint256[] memory amounts, bytes memory data)\n        public\n        onlyOwner\n    {\n        _mintBatch(to, ids, amounts, data);\n    }\n\n    function _beforeTokenTransfer(address operator, address from, address to, uint256[] memory ids, uint256[] memory amounts, bytes memory data)\n        internal\n        whenNotPaused\n        override(ERC1155, ERC1155Supply)\n    {\n        super._beforeTokenTransfer(operator, from, to, ids, amounts, data);\n    }\n\n    event ReceivedEth(uint256 amount);\n\n    receive() external payable  { \n        withdrawFunding();\n    }\n\n    fallback() external payable {\n        withdrawFunding();\n    }\n}",
  "sourcePath": "/Volumes/ChocoFlash/Work/tBotExperiment/contracts/Treasury.sol",
  "compiler": {
    "name": "solc",
    "version": "0.8.7+commit.e28d00a7.Emscripten.clang"
  },
  "schemaVersion": "3.4.4",
  "updatedAt": "2022-09-26T04:56:42.555Z",
  "networkType": "ethereum",
  "devdoc": {
    "custom:security-contact": "german.lugo@bitnibs.com",
    "kind": "dev",
    "methods": {
      "balanceOf(address,uint256)": {
        "details": "See {IERC1155-balanceOf}. Requirements: - `account` cannot be the zero address."
      },
      "balanceOfBatch(address[],uint256[])": {
        "details": "See {IERC1155-balanceOfBatch}. Requirements: - `accounts` and `ids` must have the same length."
      },
      "exists(uint256)": {
        "details": "Indicates whether any token exist with a given id, or not."
      },
      "isApprovedForAll(address,address)": {
        "details": "See {IERC1155-isApprovedForAll}."
      },
      "owner()": {
        "details": "Returns the address of the current owner."
      },
      "paused()": {
        "details": "Returns true if the contract is paused, and false otherwise."
      },
      "renounceOwnership()": {
        "details": "Leaves the contract without owner. It will not be possible to call `onlyOwner` functions anymore. Can only be called by the current owner. NOTE: Renouncing ownership will leave the contract without an owner, thereby removing any functionality that is only available to the owner."
      },
      "safeBatchTransferFrom(address,address,uint256[],uint256[],bytes)": {
        "details": "See {IERC1155-safeBatchTransferFrom}."
      },
      "safeTransferFrom(address,address,uint256,uint256,bytes)": {
        "details": "See {IERC1155-safeTransferFrom}."
      },
      "setApprovalForAll(address,bool)": {
        "details": "See {IERC1155-setApprovalForAll}."
      },
      "supportsInterface(bytes4)": {
        "details": "See {IERC165-supportsInterface}."
      },
      "totalSupply(uint256)": {
        "details": "Total amount of tokens in with a given id."
      },
      "transferOwnership(address)": {
        "details": "Transfers ownership of the contract to a new account (`newOwner`). Can only be called by the current owner."
      },
      "uri(uint256)": {
        "details": "See {IERC1155MetadataURI-uri}. This implementation returns the same URI for *all* token types. It relies on the token type ID substitution mechanism https://eips.ethereum.org/EIPS/eip-1155#metadata[defined in the EIP]. Clients calling this function must replace the `\\{id\\}` substring with the actual token type ID."
      }
    },
    "version": 1
  },
  "userdoc": {
    "kind": "user",
    "methods": {},
    "version": 1
  }
}