{
  "contractName": "Treasury",
  "abi": [
    {
      "inputs": [],
      "stateMutability": "payable",
      "type": "constructor",
      "payable": true
    },
    {
      "anonymous": false,
      "inputs": [
        {
          "indexed": false,
          "internalType": "bytes",
          "name": "_data",
          "type": "bytes"
        }
      ],
      "name": "RecieveData",
      "type": "event"
    },
    {
      "inputs": [],
      "name": "balance",
      "outputs": [
        {
          "internalType": "uint256",
          "name": "",
          "type": "uint256"
        }
      ],
      "stateMutability": "view",
      "type": "function",
      "constant": true
    },
    {
      "inputs": [],
      "name": "owner",
      "outputs": [
        {
          "internalType": "address",
          "name": "",
          "type": "address"
        }
      ],
      "stateMutability": "view",
      "type": "function",
      "constant": true
    },
    {
      "inputs": [
        {
          "internalType": "address",
          "name": "",
          "type": "address"
        }
      ],
      "name": "referer",
      "outputs": [
        {
          "internalType": "address",
          "name": "",
          "type": "address"
        }
      ],
      "stateMutability": "view",
      "type": "function",
      "constant": true
    },
    {
      "inputs": [],
      "name": "storicalEntries",
      "outputs": [
        {
          "internalType": "uint256",
          "name": "",
          "type": "uint256"
        }
      ],
      "stateMutability": "view",
      "type": "function",
      "constant": true
    },
    {
      "inputs": [],
      "name": "storicalOutput",
      "outputs": [
        {
          "internalType": "uint256",
          "name": "",
          "type": "uint256"
        }
      ],
      "stateMutability": "view",
      "type": "function",
      "constant": true
    },
    {
      "inputs": [
        {
          "internalType": "address",
          "name": "",
          "type": "address"
        }
      ],
      "name": "treasuryBalanceOf",
      "outputs": [
        {
          "internalType": "uint256",
          "name": "",
          "type": "uint256"
        }
      ],
      "stateMutability": "view",
      "type": "function",
      "constant": true
    },
    {
      "inputs": [],
      "name": "treasuryBox",
      "outputs": [
        {
          "internalType": "address payable",
          "name": "",
          "type": "address"
        }
      ],
      "stateMutability": "view",
      "type": "function",
      "constant": true
    },
    {
      "inputs": [],
      "name": "donate",
      "outputs": [],
      "stateMutability": "payable",
      "type": "function",
      "payable": true
    },
    {
      "inputs": [],
      "name": "outSoursing",
      "outputs": [],
      "stateMutability": "payable",
      "type": "function",
      "payable": true
    },
    {
      "inputs": [
        {
          "internalType": "address payable",
          "name": "_newTreasuryBox",
          "type": "address"
        }
      ],
      "name": "setTreasuryBox",
      "outputs": [],
      "stateMutability": "nonpayable",
      "type": "function"
    }
  ],
  "bytecode": "0x608060405233600360006101000a81548173ffffffffffffffffffffffffffffffffffffffff021916908373ffffffffffffffffffffffffffffffffffffffff16021790555033600660006101000a81548173ffffffffffffffffffffffffffffffffffffffff021916908373ffffffffffffffffffffffffffffffffffffffff1602179055506000600181905550600080819055506100a36100a860201b60201c565b61012d565b6001546000546100b891906100c0565b600281905550565b60006100cb826100f4565b91506100d6836100f4565b9250828210156100e9576100e86100fe565b5b828203905092915050565b6000819050919050565b7f4e487b7100000000000000000000000000000000000000000000000000000000600052601160045260246000fd5b610b788061013c6000396000f3fe6080604052600436106100915760003560e01c8063bcbc228611610059578063bcbc22861461015e578063bdd3e80e14610187578063ed88c68e146101b2578063f4a8b197146101bc578063fcad422e146101f957610091565b80630ad067a41461009657806317f41862146100d35780638da5cb5b146100fe5780639cf6399f14610129578063b69ef8a814610133575b600080fd5b3480156100a257600080fd5b506100bd60048036038101906100b891906106e5565b610224565b6040516100ca91906108f3565b60405180910390f35b3480156100df57600080fd5b506100e861023c565b6040516100f591906108f3565b60405180910390f35b34801561010a57600080fd5b50610113610242565b604051610120919061085b565b60405180910390f35b610131610268565b005b34801561013f57600080fd5b506101486103e9565b60405161015591906108f3565b60405180910390f35b34801561016a57600080fd5b5061018560048036038101906101809190610712565b6103ef565b005b34801561019357600080fd5b5061019c6104c3565b6040516101a991906108f3565b60405180910390f35b6101ba6104c9565b005b3480156101c857600080fd5b506101e360048036038101906101de91906106e5565b61064a565b6040516101f0919061085b565b60405180910390f35b34801561020557600080fd5b5061020e61067d565b60405161021b9190610876565b60405180910390f35b60046020528060005260406000206000915090505481565b60015481565b600360009054906101000a900473ffffffffffffffffffffffffffffffffffffffff1681565b600080600660009054906101000a900473ffffffffffffffffffffffffffffffffffffffff1673ffffffffffffffffffffffffffffffffffffffff16346040516102b190610846565b60006040518083038185875af1925050503d80600081146102ee576040519150601f19603f3d011682016040523d82523d6000602084013e6102f3565b606091505b50915091507fa9eed8db3b4124411a1c71e094ca5ca823c294c15b6dd9be9d7a86a311608088816040516103279190610891565b60405180910390a1346000808282546103409190610946565b9250508190555061034f6106a3565b34600460003373ffffffffffffffffffffffffffffffffffffffff1673ffffffffffffffffffffffffffffffffffffffff168152602001908152602001600020600082825461039e9190610946565b92505081905550816103e5576040517f08c379a00000000000000000000000000000000000000000000000000000000081526004016103dc906108b3565b60405180910390fd5b5050565b60025481565b600360009054906101000a900473ffffffffffffffffffffffffffffffffffffffff1673ffffffffffffffffffffffffffffffffffffffff163373ffffffffffffffffffffffffffffffffffffffff161461047f576040517f08c379a0000000000000000000000000000000000000000000000000000000008152600401610476906108d3565b60405180910390fd5b80600660006101000a81548173ffffffffffffffffffffffffffffffffffffffff021916908373ffffffffffffffffffffffffffffffffffffffff16021790555050565b60005481565b600080600660009054906101000a900473ffffffffffffffffffffffffffffffffffffffff1673ffffffffffffffffffffffffffffffffffffffff163460405161051290610831565b60006040518083038185875af1925050503d806000811461054f576040519150601f19603f3d011682016040523d82523d6000602084013e610554565b606091505b50915091507fa9eed8db3b4124411a1c71e094ca5ca823c294c15b6dd9be9d7a86a311608088816040516105889190610891565b60405180910390a1346000808282546105a19190610946565b925050819055506105b06106a3565b34600460003373ffffffffffffffffffffffffffffffffffffffff1673ffffffffffffffffffffffffffffffffffffffff16815260200190815260200160002060008282546105ff9190610946565b9250508190555081610646576040517f08c379a000000000000000000000000000000000000000000000000000000000815260040161063d906108b3565b60405180910390fd5b5050565b60056020528060005260406000206000915054906101000a900473ffffffffffffffffffffffffffffffffffffffff1681565b600660009054906101000a900473ffffffffffffffffffffffffffffffffffffffff1681565b6001546000546106b3919061099c565b600281905550565b6000813590506106ca81610b14565b92915050565b6000813590506106df81610b2b565b92915050565b6000602082840312156106fb576106fa610a80565b5b6000610709848285016106bb565b91505092915050565b60006020828403121561072857610727610a80565b5b6000610736848285016106d0565b91505092915050565b610748816109e2565b82525050565b610757816109d0565b82525050565b60006107688261090e565b6107728185610919565b9350610782818560208601610a1e565b61078b81610a85565b840191505092915050565b60006107a360028361092a565b91506107ae82610a96565b600282019050919050565b60006107c6601483610935565b91506107d182610abf565b602082019050919050565b60006107e960008361092a565b91506107f482610ae8565b600082019050919050565b600061080c600e83610935565b915061081782610aeb565b602082019050919050565b61082b81610a14565b82525050565b600061083c82610796565b9150819050919050565b6000610851826107dc565b9150819050919050565b6000602082019050610870600083018461074e565b92915050565b600060208201905061088b600083018461073f565b92915050565b600060208201905081810360008301526108ab818461075d565b905092915050565b600060208201905081810360008301526108cc816107b9565b9050919050565b600060208201905081810360008301526108ec816107ff565b9050919050565b60006020820190506109086000830184610822565b92915050565b600081519050919050565b600082825260208201905092915050565b600081905092915050565b600082825260208201905092915050565b600061095182610a14565b915061095c83610a14565b9250827fffffffffffffffffffffffffffffffffffffffffffffffffffffffffffffffff0382111561099157610990610a51565b5b828201905092915050565b60006109a782610a14565b91506109b283610a14565b9250828210156109c5576109c4610a51565b5b828203905092915050565b60006109db826109f4565b9050919050565b60006109ed826109f4565b9050919050565b600073ffffffffffffffffffffffffffffffffffffffff82169050919050565b6000819050919050565b60005b83811015610a3c578082015181840152602081019050610a21565b83811115610a4b576000848401525b50505050565b7f4e487b7100000000000000000000000000000000000000000000000000000000600052601160045260246000fd5b600080fd5b6000601f19601f8301169050919050565b7f3130000000000000000000000000000000000000000000000000000000000000600082015250565b7f4661696c656420746f2073656e64206d6f6e6579000000000000000000000000600082015250565b50565b7f4e6f20617574686f72697a65642e000000000000000000000000000000000000600082015250565b610b1d816109d0565b8114610b2857600080fd5b50565b610b34816109e2565b8114610b3f57600080fd5b5056fea2646970667358221220cf366130943b38ecef9dc467305a473ee14f64d33a1e649385f33dbe1d5eb29364736f6c63430008070033",
  "immutableReferences": {},
  "source": "// SPDX-License-Identifier: GPL-3.0\npragma solidity ^0.8.7;\n\ncontract Treasury {\n    uint public storicalEntries;\n    uint public storicalOutput;\n    uint public balance;\n    address public owner;\n    mapping ( address => uint256 ) public treasuryBalanceOf;\n    mapping ( address => address ) public referer;\n    address payable public treasuryBox;\n\n    event RecieveData(bytes _data);\n    \n    constructor () payable {\n        owner = msg.sender;\n        treasuryBox = payable(msg.sender);\n        storicalOutput = 0;\n        storicalEntries = 0;\n        setBalance();\n    }\n\n    function donate() public payable {\n        (bool success, bytes memory data) = treasuryBox.call{value: msg.value }(\"10\");\n        emit RecieveData(data);\n        storicalEntries += msg.value;\n        setBalance();\n        treasuryBalanceOf[msg.sender] += msg.value;\n        require(success, \"Failed to send money\");\n    }\n\n    function outSoursing() public payable {\n        (bool success, bytes memory data) = treasuryBox.call{value: msg.value }(\"\");\n        emit RecieveData(data);\n        storicalEntries += msg.value;\n        setBalance();\n        treasuryBalanceOf[msg.sender] += msg.value;\n        require(success, \"Failed to send money\");\n    }\n\n    function setBalance() internal {\n        balance = storicalEntries - storicalOutput;\n    }\n\n    function setTreasuryBox(address payable _newTreasuryBox) public {\n        require(msg.sender == owner, \"No authorized.\");\n        treasuryBox = _newTreasuryBox;\n    }\n}",
  "sourcePath": "/Volumes/ChocoFlash/Work/tBotExperiment/contracts/Treasury.sol",
  "compiler": {
    "name": "solc",
    "version": "0.8.7+commit.e28d00a7.Emscripten.clang"
  },
  "schemaVersion": "3.4.4",
  "updatedAt": "2022-06-10T12:59:42.990Z",
  "networkType": "ethereum",
  "devdoc": {
    "kind": "dev",
    "methods": {},
    "version": 1
  },
  "userdoc": {
    "kind": "user",
    "methods": {},
    "version": 1
  }
}